:020000040800F2
:10000000980B002089010008CD2A0008F32400087D
:10001000C92A0008F9030008B936000800000000EA
:10002000000000000000000000000000F52D0008A6
:100030003105000800000000C92B0008552E0008FB
:10004000A3010008A3010008A3010008A301000800
:10005000A3010008A3010008A30100085705000838
:10006000A3010008A301000861050008A30100081E
:10007000A3010008A3010008C5040008D504000876
:10008000E5040008F5040008A3010008A301000826
:10009000A3010008A3010008A30100086B050008E4
:1000A000A3010008A3010008A3010008A3010008A0
:1000B000C52E0008D52E0008E52E0008A301000873
:1000C000A3010008A3010008A3010008A301000880
:1000D000A301000899360008A9360008A30100080A
:1000E00033050008A3010008A301000800F002F88E
:1000F00000F03AF80AA090E8000C82448344AAF188
:100100000107DA4501D100F02FF8AFF2090EBAE885
:100110000F0013F0010F18BFFB1A43F0010318473B
:10012000A4400000C4400000103A24BF78C878C141
:10013000FAD8520724BF30C830C144BF04680C60ED
:10014000704700000023002400250026103A28BF35
:1001500078C1FBD8520728BF30C148BF0B60704739
:100160001FB51FBD10B510BD00F0CFF81146FFF749
:10017000F7FF03F0BFFA00F0EDF803B4FFF7F2FF6A
:1001800003BC00F0F1F80000094880470948004727
:10019000FEE7FEE7FEE7FEE7FEE7FEE7FEE7FEE737
:1001A000FEE7FEE704480549054A064B7047000094
:1001B000C32E0008ED00000898050020980B0020D1
:1001C0009807002098070020032A40F2308010F0A2
:1001D000030C00F0158011F8013BBCF1020F6244E2
:1001E00098BF11F801CB00F8013B38BF11F8013B73
:1001F000A2F1040298BF00F801CB38BF00F8013B20
:1002000011F0030300F04F80083AC0F0088051F865
:10021000043B083A51F804CBA0E80810F5E7121D9A
:100220005CBF51F8043B40F8043BAFF30080D207B9
:1002300024BF11F8013B11F801CB48BF11F8012B85
:1002400024BF00F8013B00F801CB48BF00F8012BA8
:1002500070474FF0000200B5134694469646203989
:1002600022BFA0E80C50A0E80C50B1F12001BFF46F
:10027000F7AF090728BFA0E80C5048BF0CC05DF8D5
:1002800004EB890028BF40F8042B08BF704748BF23
:1002900020F8022B11F0804F18BF00F8012B704797
:1002A00070477047704710B5203AC0F00B80B1E836
:1002B0001850203AA0E81850B1E81850A0E818509B
:1002C000BFF4F5AF5FEA027C24BFB1E81850A0E8A4
:1002D000185044BF18C918C0BDE810405FEA827CBE
:1002E00024BF51F8043B40F8043B08BF7047D207D5
:1002F00028BF31F8023B48BF11F8012B28BF20F876
:10030000023B48BF00F8012B7047754600F028F803
:10031000AE4605006946534620F00700854618B0F2
:1003200020B5FFF73FFFBDE820404FF000064FF03B
:1003300000074FF000084FF0000B21F00701AC461A
:10034000ACE8C009ACE8C009ACE8C009ACE8C00939
:100350008D4670470446AFF300802046FFF70DFF3F
:10036000004870473805002001491820ABBEFEE761
:10037000260002007047000070B5044625461B4861
:10038000296801606968416029890181A97A8172BF
:10039000014691F9040003F041FD0646144903F0BB
:1003A0002BFC14490860114991F9050003F036FD52
:1003B00006460F4903F020FC0E4948600B4991F9AD
:1003C000060003F02BFD0646094903F015FC094918
:1003D0008860064991F9070003F020FD06460449AC
:1003E00003F00AFC0349C86070BD0000FF04002050
:1003F0000000C8421805002000BFFEE710B502F05B
:10040000E5FB01242E48C07E022803D02C48C07E84
:10041000012802D1204602F033FC2948807E0228C0
:1004200003D02748807E012802D1204602F010FC2C
:100430002348007E022803D02148007E012802D1F3
:10044000204602F011FC1E48407E022803D01C48C2
:10045000407E012802D1204602F0EEFB1848007FC2
:10046000012802D1204602F02FFC1548407F0128C8
:1004700002D1204602F034FC1148807F022803D0CC
:100480000F48807F012802D1204602F011FC0C4861
:10049000C07F022803D00A48C07F012802D120462D
:1004A00002F0FAFB0648007C022801D102F0BEFCF3
:1004B0000348407C022801D102F09EFC10BD0000E0
:1004C0001805002010B5024800F0DEF810BD00004D
:1004D0002804002010B5024800F0D6F810BD000036
:1004E000E403002010B5024800F0CEF810BD000073
:1004F0006C04002010B5024800F0C6F810BD0000E2
:10050000B004002030B590F840500124AC40C56BD9
:100510006C60046863604468102C04D10468A260B5
:100520000468E16003E00468A1600468E26030BD33
:10053000704710B54FF4805000F00CFA4FF40050A3
:1005400000F008FA4FF4804000F004FA4FF4004045
:1005500000F000FA10BD10B5022000F0FBF910BD4C
:1005600010B5102000F0F6F910BD10B5202000F0F5
:10057000F1F9402000F0EEF910BD72B600BFFEE7C1
:100580000146002291F82100022808D00420886347
:1005900000BF002081F8200000BF012070470868DC
:1005A000006820F00E000B6818600868006820F0F2
:1005B00001000B68186091F8403001209840CB6B27
:1005C0005860012081F8210000BF002081F8200040
:1005D00000BF1046E2E7000070B50446002594F81D
:1005E0002100022803D00420A063012548E02068F0
:1005F000006820F00E00216808602068006820F084
:100600000100216808601F492068884201D101204B
:1006100026E01C4914312068884201D110201FE0D7
:10062000184928312068884201D1801518E0154901
:100630003C312068884201D1801411E011495031C9
:100640002068884202D14FF4803009E00D496431BE
:100650002068884202D14FF4801001E04FF0807092
:10066000084908394860012084F8210000BF0020B3
:1006700084F8200000BF606B10B12046616B884792
:10068000284670BD0800024070B50446E06B05685E
:100690002068066894F8401004208840284000280C
:1006A00046D006F00400002842D02068006800F020
:1006B000200028B92068006820F004002168086044
:1006C00057492068884201D1042027E05449143159
:1006D0002068884201D1402020E05149283120681B
:1006E000884201D1001519E04D493C31206888420B
:1006F00002D14FF4804011E04949503120688842CE
:1007000002D14FF4802009E04549643120688842D5
:1007100002D14FF4800001E04FF080604049083979
:100720004860E06A00287AD02046E16A884776E08F
:1007300094F84010022088402840A0B306F0020040
:1007400088B32068006800F0200040B92068006885
:1007500020F00A0021680860012084F82100304957
:100760002068884201D1022028E02D4914312068F8
:10077000884201D1202021E029492831206888427F
:1007800001D140151AE026493C312068884202D147
:100790004FF4005012E0224950312068884203D1C2
:1007A0004FF400300AE017E01D49643120688842A8
:1007B00002D14FF4001001E04FF0007018490839E1
:1007C000486000BF002084F8200000BFA06A30B35A
:1007D0002046A16A884722E094F84010082088400B
:1007E0002840E0B106F00800C8B12068006820F099
:1007F0000E002168086094F8401001208840E16BE9
:1008000048600120A06384F8210000BF002084F824
:10081000200000BF206B10B12046216B884770BDBF
:10082000080002400146002209B901207047164B1A
:100830000868C01A1423B0FBF3F080000864124863
:100840000838C863022081F821000868026843F66E
:10085000F0708243D1E901031843CB6818430B6958
:1008600018434B6918438B691843CB6918430243FB
:100870000868026000208863012081F821000020C0
:1008800081F8200000BFD1E7080002402DE9F041C7
:1008900004460D4616461F464FF0000800BF94F868
:1008A0002000012802D10220BDE8F081012084F857
:1008B000200000BF94F8210001282CD1022084F8E8
:1008C00021000020A0632068006820F0010021685A
:1008D00008603B46324629462046FFF713FEE06A91
:1008E00030B12068006840F00E00216808600BE01D
:1008F0002068006820F00400216808602068006813
:1009000040F00A00216808602068006840F001009B
:100910002168086006E000BF002084F8200000BFC6
:100920004FF002084046BFE770B5044600F0B6F944
:1009300006462546681C10B104480078054400BFEF
:1009400000F0ACF9801BA842FAD370BD2000002053
:100950007047000010B5044604480068204020B1EC
:10096000024804602046FFF7F3FF10BD1404014065
:100970002DE9F8470346002294466EE14FF0010846
:1009800008FA02F4D1F8008008EA0400A0427DD100
:10099000DFF8DCA2D1F80480A8EB0A09D0453AD0F0
:1009A00014DCB8F1030F50D009DCB8F1000F31D0DE
:1009B000B8F1010F1CD0B8F1020F49D120E0B8F115
:1009C000110F18D0B8F1120F42D11EE0B9F5881FEF
:1009D00025D006DCB9F5803F20D0B9F5801F37D18E
:1009E0001AE0B9F5001F18D0B9F5041F30D117E08F
:1009F000D1F80CC02DE0D1F80C8008F1040C28E0EF
:100A0000D1F80C8008F1080C23E0D1F80C8008F133
:100A10000C0C1EE000BF00BF00BF00BF00BF00BF46
:100A2000D1F80880B8F1000F02D14FF0040C0BE0B0
:100A3000D1F80880B8F1010F03D14FF0080C1C6108
:100A400002E04FF0080C5C6103E04FF0000C00E0A6
:100A500000BF00BFFF2801D8984601E003F1040859
:100A60004646FF2802D84FEA820803E0A2F10808B0
:100A70004FEA88084746D6F800804FF00F0909FA78
:100A800007F928EA09080CFA07F900E088E048EAC3
:100A90000908C6F80080D1F8048008F08058B8F141
:100AA000805F7DD100BFDFF8CC81D8F8188048F096
:100AB0000108DFF8C091C9F81880C846D8F8188036
:100AC00008F00108CDF8008000BF00BF4FEAB93838
:100AD0004FEA920958F829504FEA82784FEA18797C
:100AE0004FF00F0808FA09F825EA0805DFF88881B1
:100AF000434502D14FF0000816E0DFF880814345FE
:100B000002D14FF001080FE0DFF87481434502D1B4
:100B10004FF0020808E0DFF86C81434502D14FF046
:100B2000030801E04FF004084FEA82794FEA19798F
:100B300008FA09F848EA0505DFF84C814FEA9209FE
:100B400048F82950D1F8048008F48018B8F5801FBF
:100B50000AD1DFF83881D8F8008048EA0008DFF8C9
:100B60002C91C9F8008009E0DFF82081D8F80080D6
:100B700028EA0008DFF81491C9F80080D1F8048051
:100B800008F40018B8F5001F10D1DFF8008108F153
:100B90000408D8F8008048EA0008DFF8F09000E088
:100BA0005AE009F10409C9F800800DE0DFF8DC80A3
:100BB00008F10408D8F8008028EA0008DFF8CC9093
:100BC00009F10409C9F80080D1F8048008F400385C
:100BD000B8F5003F0ED1DFF8B480A8F10408D8F8CA
:100BE000008048EA0008DFF8A490A9F10409C9F8D8
:100BF00000800DE0DFF89480A8F10408D8F80080A8
:100C000028EA0008DFF88490A9F10409C9F80080F7
:100C1000D1F8048008F48038B8F5803F0ED1DFF8B1
:100C20006C80A8F10808D8F8008048EA0008DFF8CE
:100C30005C90A9F10809C9F800800DE0DFF84C804C
:100C4000A8F10808D8F8008028EA0008DFF83C90EE
:100C5000A9F10809C9F80080521CD1F8008028FACF
:100C600002F8B8F1000F7FF489AEBDE8F887000004
:100C7000000011100010024000080140000C01406B
:100C80000010014000140140080001400804014028
:100C90000AB1016101E00B0403617047014800687B
:100CA00070470000180000200348006803490978D5
:100CB0000844014908607047180000202000002007
:100CC00010B50848006840F010000649086003208D
:100CD00000F0A8F80F2000F007F800F02BF8002033
:100CE00010BD00000020024070B504460E48007898
:100CF0004FF47A71B1FBF0F00C490968B1FBF0F5E3
:100D0000284600F0F9FB08B1012070BD102C07D275
:100D100000222146501E00F047F80548046001E01B
:100D20000120F2E70020F0E720000020240000204E
:100D30001C00002008B500BF1148806940F0010088
:100D40000F4988610846806900F00100009000BFEB
:100D500000BF00BF0846C06940F08050C861084627
:100D6000C06900F08050009000BF00BF00BF05497F
:100D7000486820F0E06040F00070486000BF08BDA7
:100D8000001002400000014001460846002809DB2F
:100D900000F01F0301229A4043099B0003F1E02366
:100DA000C3F8002100BF70472DE9F05F80460D4673
:100DB0001646002702F082FC074639462A4633468B
:100DC00001F00700C0F1070ABAF1040F02D94FF091
:100DD000040A01E0C0F1070AD14600F1040ABAF1A1
:100DE000070F02D24FF0000A01E0A0F1030AD44637
:100DF0004FF0010A0AFA09FAAAF1010A0AEA020AFC
:100E00000AFA0CFA4FF0010B0BFA0CFBABF1010BD9
:100E10000BEA030B4AEA0B042146404602F056FC5B
:100E2000BDE8F09F00BF00F00702064B19684FF6BF
:100E3000FF031940044B0B4343EA0221014B1960A5
:100E400000BF70470CED00E00000FA0570B50446E5
:100E50000D460CB9012070BD5A48006800F007002B
:100E6000A8420ED25748006820F007002843554991
:100E700008600846006800F00700A84201D0012081
:100E8000E9E7207800F0020002281DD1207800F068
:100E90000400042805D14C48406840F4E0604A4909
:100EA0004860207800F00800082805D146484068CE
:100EB00040F46050444948604348406820F0F000E6
:100EC000A168084340494860207800F0010078B3E9
:100ED0006068012806D13C48006800F4003090B9F1
:100EE0000120B8E76068022806D13748006800F0A2
:100EF000007040B90120AEE73348006800F00200FE
:100F000008B90120A7E73048406820F00300616875
:100F100008432D494860FFF7C1FE064609E0FFF788
:100F2000BDFE801B41F28831884202D9032092E73E
:100F300007E02548406800F00C006168B0EB810FC5
:100F4000EDD12048006800F00700A8420ED91D48E6
:100F5000006820F0070028431A4908600846006826
:100F600000F00700A84201D0012074E7207800F0CB
:100F70000400042807D11448406820F4E060E168C8
:100F8000084311494860207800F00800082808D17B
:100F90000D48406820F46050216940EAC1000A49C8
:100FA000486000F03FF808494968C1F30311074A57
:100FB000515CC8400649086006480068FFF794FE87
:100FC000002048E70020024000100240AC41000829
:100FD000240000201C000020014800687047000029
:100FE0002400002000B5FFF7F7FF04494968C1F36A
:100FF0000221034A515CC84000BD000000100240BD
:10100000BC41000800B5FFF7E7FF04494968C1F398
:10101000C221034A515CC84000BD000000100240DC
:10102000BC41000870B500210022002400230020EC
:10103000134D696801F00C05F5B1042D02D0082D9F
:1010400019D101E00F4819E00F4DC1F38346AB5DA4
:1010500001F4803555B10A4D6D68C5F340450B4E1E
:10106000725D084D5D43B5FBF2F402E0084D03FBF1
:1010700005F4204602E000BF024800BF00BF70BD7B
:101080000010024000127A009A410008AA410008AC
:1010900000093D00F8B504460CB90120F8BD2078E0
:1010A00000F00100002878D0F848406800F00C00FB
:1010B00004280CD0F548406800F00C00082811D135
:1010C000F248406800F48030B0F5803F0AD1EF4824
:1010D000006800F4003000285FD0606800285CD110
:1010E0000120DBE700BF6068B0F5803F06D1E7482C
:1010F000006840F48030E549086028E0606858B92D
:10110000E248006820F48030E04908600846006842
:1011100020F4802008601AE06068B0F5A02F0BD1A1
:10112000DA48006840F48020D84908600846006822
:1011300040F4803008600AE0D448006820F4803031
:10114000D24908600846006820F48020086000BF8B
:10115000606888B1FFF7A2FD054606E0FFF79EFD37
:10116000401B642801D9032098E7C848006800F4B0
:1011700000300028F2D010E0FFF790FD054606E0B1
:10118000FFF78CFD401B642801D9032086E7BF4888
:10119000006800F400300028F2D1207800F002004E
:1011A000022857D1B948406800F00C0050B1B74848
:1011B000406800F00C00082818D1B448406800F4DA
:1011C000803098B9B148006800F0020020B1206971
:1011D000012801D0012061E7AC48006820F0F80048
:1011E000616940EAC100A949086033E02069E8B1BB
:1011F0000120A7490860FFF751FD054606E0FFF70B
:101200004DFD401B022801D9032047E79F48006895
:1012100000F002000028F2D09C48006820F0F8009E
:10122000616940EAC1009949086013E000209849CB
:101230000860FFF733FD054606E0FFF72FFD401B72
:10124000022801D9032029E79048006800F0020035
:101250000028F2D1207800F0080008282DD1A069DC
:10126000B8B101208B490860FFF718FD054606E07C
:10127000FFF714FD401B022801D903200EE7834825
:10128000406A00F002000028F2D0012001F0C0FC0A
:1012900013E000207F490860FFF700FD054606E0E7
:1012A000FFF7FCFC401B022801D90320F6E6774833
:1012B000406A00F002000028F2D1207800F004001B
:1012C000042873D100277148C06900F0805070B9BC
:1012D00000BF6E48C06940F080506C49C861084644
:1012E000C06900F08050009000BF00BF01276A482D
:1012F000006800F48070B0B96748006840F48070FE
:1013000065490860FFF7CAFC054606E0FFF7C6FC22
:10131000401B642801D90320C0E65F48006800F440
:1013200080700028F2D000BFE068012806D157483D
:10133000006A40F001005549086227E0E06858B9AA
:101340005248006A20F00100504908620846006ACD
:1013500020F00400086219E0E06805280BD14B4832
:10136000006A40F00400494908620846006A40F0FB
:10137000010008620AE04548006A20F00100434984
:1013800008620846006A20F00400086200BFE068B6
:10139000A0B1FFF783FC054609E0FFF77FFC401B87
:1013A00041F28831884202D9032077E622E03748AB
:1013B000006A00F002000028EFD012E0FFF76EFC98
:1013C000054608E0FFF76AFC401B41F2883188427D
:1013D00001D9032062E62D48006A00F002000028CF
:1013E000F0D1012F05D12948C06920F0805027494C
:1013F000C86100BFE069C8B32448406800F00C0031
:10140000082860D0E069022848D1002020490866F9
:10141000FFF744FC054606E0FFF740FC401B0228AE
:1014200001D903203AE61948006800F0007000284E
:10143000F2D1206AB0F5803F07D11448406820F40B
:101440000030A168084311494860D4E90801084305
:101450000E49496821F4741108430C494860012081
:101460000B490866FFF71AFC054607E03DE0FFF769
:1014700015FC401B022801D903200FE60348006831
:1014800000F000700028F2D02FE0000000100240B1
:101490000000424280044242007000400020144993
:1014A0000866FFF7FBFB054606E0FFF7F7FB401B6E
:1014B000022801D90320F1E50E48006800F0007011
:1014C0000028F2D111E0E069012800D1E6E50948E1
:1014D000466806F48031206A814204D106F4701116
:1014E000606A814201D00120D8E50020D6E50000E5
:1014F000000042420010024070B504462546681EB6
:10150000B0F1807F01D301200FE0681E4FF0E02191
:1015100048610F214FF0FF3002F0D8F800204FF063
:10152000E021886107200861002070BD7047704786
:1015300010B50346002200BF93F83C00012801D1FA
:10154000022010BD012083F83C0000BF22F0FF0004
:10155000CC6840EA040222F440708C6840EA04023D
:1015600022F480604C6840EA040222F400600C68B7
:1015700040EA040222F480500C6940EA040222F49A
:1015800000504C6940EA040222F48040CC6940EAF1
:1015900004021868426400BF002083F83C0000BFCA
:1015A00000BFCEE730B502460B4600BF92F83C00C4
:1015B000012801D1022030BD012082F83C0000BF8B
:1015C000022082F83D00106844681068816824F0A9
:1015D00070041868044310684460104D1068A842F5
:1015E0000BD01068B0F1804F07D00D4D1068A842A5
:1015F00003D00C4D1068A84205D121F08001586835
:10160000014310688160012082F83D0000BF002086
:1016100082F83C0000BF00BFCDE70000002C014075
:10162000000400400008004010B504460CB9012039
:1016300010BD94F83D0028B9002084F83C002046F5
:1016400000F026F8022084F83D00211D206801F0FA
:1016500051FC012084F8460000BF84F83E000121BF
:101660003F200155402001554120015500BF00BFDA
:10167000012084F8420043200155442001554520B3
:10168000015500BF012084F83D000020D0E7000094
:1016900038B504463149206888420DD100BF304832
:1016A000806940F400602E4988610846806900F432
:1016B0000060009000BF4FE02068B0F1804F16D16D
:1016C00000BF2748C06940F001002549C8610846AD
:1016D000C06900F00100009000BF00BF0022114669
:1016E0001C20FFF761FB1C20FFF74EFB34E01D4977
:1016F0002068884216D100BF1948C06940F0020036
:101700001749C8610846C06900F00200009000BF98
:1017100000BF002211461D20FFF746FB1D20FFF7EA
:1017200033FB19E010492068884215D100BF0C48EE
:10173000C06940F004000A49C8610846C06900F069
:101740000400009000BF00BF002211461E20FFF7DA
:101750002BFB1E20FFF718FB38BD0000002C0140BA
:10176000001002400004004000080040014691F8CB
:101770003D00012801D001207047022081F83D0082
:101780000868C06840F001000B68D860124B086818
:1017900098420BD00868B0F1804F07D00F4B086813
:1017A000984203D00E4B086898420CD108688068B4
:1017B00000F00702062A0CD00868006840F001001B
:1017C0000B68186005E00868006840F001000B68CD
:1017D00018600020D0E70000002C01400004004009
:1017E000000800402DE9F04104460D46002700BFE7
:1017F00094F83C00012802D10220BDE8F0810120CC
:1018000084F83C0000BF022084F83D002068866810
:1018100026F0770626F47F462068866028685028E0
:1018200033D00CDC202850D004DC00284BD010280A
:1018300051D149E0302849D040284CD139E06028C6
:101840002DD0702807D0B0F5805F03D0B0F5005FD1
:1018500041D10DE041E0D5E902136A68206801F04A
:101860009CFB2068866846F077062068866034E036
:10187000D5E902136A68206801F08FFB2068806850
:1018800040F480402168886027E0EA686968206841
:1018900001F054FC5021206801F08AFB1DE0EA6849
:1018A0006968206801F05DFC6021206801F080FB20
:1018B00013E0EA686968206801F040FC4021206874
:1018C00001F076FB09E000BF00BF00BF2968206877
:1018D00001F06EFB01E0012700BF00BF012084F88A
:1018E0003D0000BF002084F83C0000BF384684E77C
:1018F000704770B504462068C5682068066906F020
:101900000200022819D105F00200022815D1401F5B
:1019100021680861012020772068806900F00300B9
:1019200018B12046FFF7E4FF05E0204600F01AF961
:10193000204600F0CEF90020207706F004000428AD
:1019400019D105F00400042815D1C04321680861AD
:10195000022020772068806900F4407018B120468A
:10196000FFF7C6FF05E0204600F0FCF8204600F037
:10197000B0F90020207706F00800082819D105F0FA
:101980000800082815D1C043216808610420207789
:101990002068C06900F0030018B12046FFF7A8FFD7
:1019A00005E0204600F0DEF8204600F092F9002025
:1019B000207706F01000102819D105F0100010282B
:1019C00015D1C04321680861082020772068C069CC
:1019D00000F4407018B12046FFF78AFF05E020466A
:1019E00000F0C0F8204600F074F90020207706F0DF
:1019F000010048B105F0010030B16FF0010021682D
:101A00000861204600F0D0F906F08000802809D156
:101A100005F08000802805D1C04321680861204678
:101A2000FFF784FD06F04000402809D105F0400092
:101A3000402805D1C04321680861204600F0EAF93A
:101A400006F02000202809D105F02000202805D12B
:101A5000C043216808612046FFF769FD70BD0000A2
:101A600010B586B0044600200290039004900590C3
:101A700036492068884218D100BF3548806940F057
:101A80000400334988610846806900F00400019031
:101A900000BF00BF4FF470600290022003900590D9
:101AA00002A92C48FEF764FF4DE02B4920688842CC
:101AB0002DD100BF2648806940F004002449886188
:101AC0000846806900F00400019000BF00BF00BF1D
:101AD0000846806940F0080088610846806900F087
:101AE0000800019000BF00BF8020029002200390F8
:101AF000059002A91748FEF73BFF01200290022043
:101B00000390059002A91548FEF732FF1BE0144927
:101B10002068884217D100BF0D48806940F0080056
:101B20000B4988610846806900F00800019000BFF9
:101B300000BF4FF44070029002200390059002A96C
:101B40000648FEF715FF06B010BD0000002C01404E
:101B5000001002400008014000040040000C014059
:101B60000008004070472DE9F04104460D46164636
:101B7000002700BF94F83C00012802D10220BDE8F4
:101B8000F081012084F83C0000BF36B1042E1BD048
:101B9000082E31D00C2E5ED145E02946206801F098
:101BA00011FA2068806940F0080021688861206887
:101BB000806920F0040021688861206880692969B3
:101BC00008432168886148E02946206801F02AFA24
:101BD0002068806940F4006021688861206880691D
:101BE00020F480602168886120688069296940EA62
:101BF00001202168886130E02946206801F046FA1A
:101C00002068C06940F008002168C8612068C06988
:101C100020F004002168C8612068C0692969084370
:101C20002168C86119E02946206801F063FA20683C
:101C3000C06940F400602168C8612068C06920F470
:101C400080602168C8612068C069296940EA012074
:101C50002168C86101E0012700BF00BF00BF00206C
:101C600084F83C0000BF384689E710B504460CB93B
:101C7000012010BD94F83D0028B9002084F83C00F4
:101C8000204600F025F8022084F83D00211D206840
:101C900001F030F9012084F8460000BF84F83E00CE
:101CA00001213F200155402001554120015500BF31
:101CB00000BF012084F84200432001554420015513
:101CC0004520015500BF012084F83D000020D0E7E9
:101CD0007047704770B504460D4615B994F83E003C
:101CE0000BE0042D02D13F20005D06E0082D02D15B
:101CF0004020005D01E04120005D012801D001206D
:101D000070BD1DB9022084F83E000EE0042D03D101
:101D100002213F20015508E0082D03D10221402077
:101D2000015502E002214120015501222946206887
:101D300001F022F919492068884201D1012000E010
:101D4000002028B12068406C40F4004021684864BD
:101D50001249206888420BD02068B0F1804F07D02C
:101D60000F492068884203D00E49206888420CD170
:101D70002068806800F00706062E0CD020680068F6
:101D800040F001002168086005E02068006840F02C
:101D90000100216808600020B2E70000002C01402B
:101DA000000400400008004010B504462068B0F16F
:101DB000804F21D100F0BEFB1048007C022804D1E6
:101DC0000F480078401C0E4908700E48406C38B12E
:101DD0000C4800F091F80B220B490A4800F01BF860
:101DE0000A48406C40B1094800F086F84FF4807210
:101DF0000749064800F00FF810BD00001805002044
:101E00000400002054030020F40400209C03002060
:101E1000280000207047F8B504460D46164694F891
:101E2000420020282DD105B10EB90120F8BD0120B6
:101E300020630020606332462946204601F098FB6B
:101E40000746206B012819D100BF002000902068B0
:101E50000068009020684068009000BF00BF00BF8D
:101E600000BF21680C3151E8001F41F010002168CB
:101E70000C3141E80002002AF3D100E00127384686
:101E8000D4E70220D2E7000070B504460D4612499F
:101E90002068884210D111480078AA2806D10F483E
:101EA0004078552802D10D48FEF766FA0B220B49FF
:101EB0000B48FFF7B0FF0DE00A492068884209D1BE
:101EC00009480580012009490870020208490948AB
:101ED000FFF7A1FF70BD000000380140F4040020AE
:101EE00054030020004400400000002002000020B5
:101EF000280000209C03002070B5044600252068BF
:101F00004069C0F3C01594F84100212817D1B5B13C
:101F100000BF00BF2168143151E8001F21F080008C
:101F20002168143141E80002002AF3D100BFA06B00
:101F300010B1A06BFEF724FB204601F00AFA2068DE
:101F40004069C0F3801594F84200222817D1B5B13A
:101F500000BF00BF2168143151E8001F21F040008C
:101F60002168143141E80002002AF3D100BFE06B80
:101F700010B1E06BFEF704FB204601F0A4F900204D
:101F800070BD70472DE9F84F044620680568206849
:101F9000C668206847694FF00009CA4605F00F0976
:101FA000B9F1000F0AD105F0200038B106F0200089
:101FB00020B1204601F0E0F9BDE8F88FB9F1000F3B
:101FC0007BD007F0010018B906F49070002874D097
:101FD00005F0010030B106F4807018B1606C40F07B
:101FE0000100606405F0040030B107F0010018B191
:101FF000606C40F00200606405F0020030B107F050
:10200000010018B1606C40F00400606405F0080045
:1020100048B106F0200010B907F0010018B1606C5B
:1020200040F008006064606C002845D005F0200096
:1020300028B106F0200010B1204601F09DF920687B
:102040004069C0F3801A606C00F0080010B9BAF162
:10205000000F2CD0204601F036F92068406900F0CE
:10206000400000B300BF00BF2168143151E8001FD9
:1020700021F040002168143141E80002002AF3D128
:1020800000BFE06B50B17748E16B4863E06BFEF74F
:10209000A3FA88B1E06B416B88470DE02046FFF75B
:1020A00070FF09E009E02046FFF76BFF04E02046DF
:1020B000FFF767FF002060647EE7206B012877D17F
:1020C00005F01000002873D006F010000028FAD0A8
:1020D00000BF0020009020680068009020684068E1
:1020E000009000BF00BF2068406900F04000002859
:1020F0005FD0E06B006840681FFA80F8B8F1000F0D
:1021000055D0A08D404552DDA4F82E80E06B80694B
:10211000202843D000BF00BF21680C3151E8001FC8
:1021200021F4807021680C3141E80002002AF3D1CB
:1021300000BF00BF00BF2168143151E8001F21F02B
:1021400001002168143141E80002002AF3D100BFE8
:1021500000BF00BF2168143151E8001F21F040008A
:102160002168143141E80002002AF3D100BF202089
:1021700084F842000020206300BF00BF21680C31BA
:1021800051E8001F21F0100021680C3141E80002E5
:10219000002AF3D100BFE06BFEF7F2F90220606382
:1021A000A08DE28D801A81B22046FFF76DFE03E715
:1021B00042E0A08DE18D401A1FFA80F8E08DD0B387
:1021C000B8F1000F37D000BF00BF21680C3151E8D3
:1021D000001F21F4907021680C3141E80002002AB0
:1021E000F3D100BF00BF00BF2168143151E8001FC8
:1021F00021F001002168143141E80002002AF3D1E6
:1022000000BF202084F842000020206300BF00BFF0
:1022100021680C3151E8001F21F0100021680C31B9
:1022200041E80002002AF3D100BF0220606341466A
:102230002046FFF729FEBFE605F0800030B106F02A
:10224000800018B1204601F0F7F9B5E605F040002E
:1022500030B106F0400018B1204601F06AF8ABE654
:1022600000BFA9E68B31000810B504460CB9012067
:1022700010BDA06900B100E000BF94F8410028B98A
:10228000002084F84000204600F02AF8242084F83A
:1022900041002068C06820F400502168C8602046D2
:1022A00001F0E8F82068006920F490402168086196
:1022B0002068406920F02A00216848612068C068D1
:1022C00040F400502168C86000206064202084F839
:1022D000410084F842000020606300BFC8E70000AE
:1022E00010B586B00446002002900390049005903B
:1022F00073492068884273D100BF7248806940F4F6
:102300008040704988610846806900F480400190EF
:1023100000BF00BF00BF0846806940F00800886128
:102320000846806900F00800019000BF00BF40200F
:102330000290022003900320059002A96248FEF754
:1023400017FB8020029000200390049002A95E48B1
:10235000FEF70EFB00BF5D49486840F0E06040F0CA
:102360000400486000BF5A485A490860002048608D
:102370000021584881608021C160002101614161D4
:102380008161C161FEF74EFA08B1FEF7F6F800BFB1
:102390005048E063446200BF4D4814384E4908601D
:1023A0001020486000214C4881608021C1600021DC
:1023B000016141618161C161FEF734FA08B1FEF744
:1023C000DCF800BF4448A063446200BF002211460D
:1023D0002520FEF7E9FC2520FEF7D6FC6EE0FFE79E
:1023E0003E492068884269D100BF3648C06940F440
:1023F00000303449C8610846C06900F400300190DB
:1024000000BF00BF00BF0846806940F0040088613B
:102410000846806900F00400019000BF00BF04205E
:102420000290022003900320059002A92C48FEF799
:102430009FFA0820029000200390049002A92848E7
:10244000FEF796FA224814302649086000204860BA
:102450000021244881608021C16000210161416127
:102460008161C161FEF7DEF908B1FEF786F800BFB1
:102470001C48E063446200BF154828301A490860D0
:10248000102048600021184881608021C16000212F
:10249000016141618161C161FEF7C4F908B1FEF7D4
:1024A0006CF800BF1048A063446200BF00221146D0
:1024B0002620FEF779FC2620FEF766FC06B010BD4C
:1024C0000038014000100240000C014000000140B3
:1024D00058000240E403002028040020004400408B
:1024E000000801406C040020B004002070477047D1
:1024F000704700BFFEE712B1012A18D10BE011B1FD
:10250000012906D102E00023037002E002230370D8
:1025100000BF00BF0BE011B1012906D102E0032387
:10252000037002E00123037000BF00BF00BF00BFC3
:102530007047000030B500240EE0184B1B7A234191
:1025400003F00102164B1B7A234103F00101154BE6
:102550001819FFF7D0FF641C082CEEDB002410E0F4
:102560000E4B5B7A234103F001020D4B5B7A234152
:1025700003F001010B4B04F108055819FFF7BBFFED
:10258000641C082CECDB054805490A6802604A68AF
:1025900042600A890281897A817230BD0A05002071
:1025A000FF0400202805002008B500BF1648406938
:1025B00040F00100144948610846406900F00100FC
:1025C000009000BF00BF002211460E20FEF7ECFB7A
:1025D0000E20FEF7D9FB002211460F20FEF7E4FB88
:1025E0000F20FEF7D1FB002211461020FEF7DCFB86
:1025F0001020FEF7C9FB002211461120FEF7D4FB84
:102600001120FEF7C1FB08BD0010024000B585B0E7
:102610000020019002900390049000BF514880690F
:1026200040F010004F4988610846806900F01000B2
:10263000009000BF00BF00BF0846806940F0200046
:1026400088610846806900F02000009000BF00BF4C
:1026500000BF0846806940F0040088610846806930
:1026600000F00400009000BF00BF00BF0846806972
:1026700040F0080088610846806900F0080000907A
:1026800000BF00BF00224FF440413748FEF700FB77
:10269000002203213548FEF7FBFA002240F61841DC
:1026A0003348FEF7F5FA4FF44040019001200290C4
:1026B000002003900220049001A92B48FEF758F94E
:1026C000032001900120029000200390022004903A
:1026D00001A92648FEF74CF941F270000190254807
:1026E00002900020039001A92048FEF741F94EF224
:1026F000020001901F4802900020039001A91C488D
:10270000FEF736F940F618400190012002900020B3
:1027100003900220049001A91548FEF729F9002230
:1027200011460720FEF740FB0720FEF72DFB002295
:1027300011460A20FEF738FB0A20FEF725FB00228F
:1027400011461720FEF730FB1720FEF71DFB002275
:1027500011462820FEF728FB2820FEF715FB05B0C0
:1027600000BD0000001002400010014000080140C0
:10277000000C01400000311000B595B00020119010
:102780001290139014900F9010901C2108A8FDF740
:1027900060FD20216846FDF75CFD37483749086039
:1027A000472048600021354881606321C1600021D5
:1027B0000161416180218161FEF736FF08B1FDF7BB
:1027C000DCFE4FF48050119011A92C48FFF70AF855
:1027D00008B1FDF7D2FE2948FFF747FA08B1FDF727
:1027E000CCFE00200F9010900FA92448FEF7DAFECF
:1027F00008B1FDF7C2FE60200890002009900A9001
:102800000B900C900D900E90002208A91B48FFF72A
:10281000AAF908B1FDF7B1FE042208A91748FFF78D
:10282000A2F908B1FDF7A9FE082208A91348FFF78D
:102830009AF908B1FDF7A1FE0C2208A90F48FFF78D
:1028400092F908B1FDF799FE0020009001900290E6
:10285000039004904FF400500590002007906946C3
:102860000648FEF765FE08B1FDF787FE0348FFF74F
:10287000F7F815B000BD0000002C01403402002024
:1028800000B587B000200390049005900690019059
:1028900002904FF0804014490860472048600021B2
:1028A0001148816040F2E731C1600021016181611E
:1028B000FEF7BAFE08B1FDF760FE4FF480500390BA
:1028C00003A90948FEF78EFF08B1FDF756FE002068
:1028D0000190029001A90448FEF764FE08B1FDF7DB
:1028E0004CFE07B000BD00007C02002000B58DB09A
:1028F000002009900A900B900C90079008901C21E2
:102900006846FDF7A6FC2448244908604720486033
:1029100000212248816044F61F61C16000210161ED
:1029200080218161FEF780FE08B1FDF726FE4FF49D
:102930008050099009A91948FEF754FF08B1FDF726
:102940001CFE1648FFF791F908B1FDF716FE0020AE
:102950000790089007A91148FEF724FE08B1FDF77B
:102960000CFE602000900020019002900490042250
:1029700069460A48FFF7F7F808B1FDF7FEFD08229F
:1029800069460648FFF7EFF808B1FDF7F6FD034882
:10299000FFF766F80DB000BD00040040C40200203F
:1029A00000B58DB0002009900A900B900C90079014
:1029B00008901C216846FDF74CFC24482449086017
:1029C0004720486000212248816044F61F61C160B1
:1029D0000021016180218161FEF726FE08B1FDF72B
:1029E000CCFD4FF48050099009A91948FEF7FAFE72
:1029F00008B1FDF7C2FD1648FFF737F908B1FDF73A
:102A0000BCFD00200790089007A91148FEF7CAFDF9
:102A100008B1FDF7B2FD6020009000200190029007
:102A20000490082269460A48FFF79DF808B1FDF7AF
:102A3000A4FD0C2269460648FFF795F808B1FDF79A
:102A40009CFD0348FFF70CF80DB000BD00080040E6
:102A50000C03002010B50B480B4908604FF4E1301F
:102A60004860002108488160C16001610C2141611A
:102A700000218161C161FFF7F7FB08B1FDF77DFD22
:102A800010BD0000003801405403002010B50C4870
:102A90000C4908604FF4E13048600021094881602A
:102AA000C16001610C2141614FF40071816100211D
:102AB000C161FFF7D9FB08B1FDF75FFD10BD000054
:102AC000004400409C03002000BFFEE700BFFEE77B
:102AD0002DE9F05F05468A464FF0000B0024384888
:102AE0000078012802D00020BDE8F09F5EE0285D5C
:102AF000AA2858D104F10900504554DA285C552819
:102B000051D1A01C295C601C285C41EA002006B25F
:102B1000201D295CE01C285C41EA002007B2A01DB2
:102B2000295C601D285C41EA00200FFA80F804F15E
:102B30000800295CE01D285C41EA00200FFA80F9BA
:102B4000204806804780A0F80480A0F8069016F17F
:102B5000630F27DB632E25DC17F1630F22DB632F66
:102B600020DC18F1630F1DDBB8F1630F1ADC19F1DB
:102B7000630F17DBB9F1630F14DC012011490872F0
:102B80000BF101001FFA80FB0D480078012805D1E8
:102B90004B4642463946304600F0F6FE04F10A0044
:102BA00084B203E000BF601C84B200BF54459EDBCA
:102BB000BBF1000F01DD012096E7002094E7000043
:102BC00003000020280100207047000010B50B48CA
:102BD000007888B10A48007801280DD10948028898
:102BE00009490A48FDF7F0FA064801880748FFF747
:102BF0006FFF00200149087010BD00000200002096
:102C000003000020000000202800002032010020E6
:102C100008B508490968C9084FF47A72B1FBF2F1A6
:102C20004143009100BF00BF00994A1E0092002955
:102C3000F9D108BD2400002010B5044603480078EF
:102C4000001BC4B2204600F057F810BD050000205C
:102C500010B5044603480078001BC4B2204600F0BB
:102C60008BF810BD0900002010B504460348007819
:102C70002044C4B2204600F03FF810BD05000020FB
:102C800010B50446034800782044C4B2204600F042
:102C900073F810BD0900002010B504460348007801
:102CA000001BC4B2204600F047F810BD0D00002004
:102CB00010B50446034800782044C4B2204600F012
:102CC0003BF810BD0D00002010B504460348007805
:102CD000001BC4B2204600F06FF810BD11000020A8
:102CE00010B50446034800782044C4B2204600F0E2
:102CF00063F810BD110000200D4A5278824202DDB7
:102D00000B4A507805E00A4AD278824201DA084A32
:102D1000D078074B18704FF4FA624243B42392FB09
:102D2000F3F202F5FA71034A1268D16370470000AA
:102D3000050000200C0300200D4A5278824202DD7B
:102D40000B4A507805E00A4AD278824201DA084AF2
:102D5000D078074B18704FF4FA624243B42392FBC9
:102D6000F3F202F5FA71034A1268916370470000AA
:102D70000D000020C40200200D4A5278824202DD7C
:102D80000B4A507805E00A4AD278824201DA084AB2
:102D9000D078074B18704FF4FA624243B42392FB89
:102DA000F3F202F5FA71034A1268116470470000E9
:102DB000090000200C0300200C4A5278824202DDF8
:102DC0000A4A507804E0094AD278824200DA0020A8
:102DD000064B18704FF4FA624243B42392FBF3F2AD
:102DE00002F5FA71024A1268D1637047110000209F
:102DF000C40200207047000000B508498878FFF73A
:102E0000DBFF07498878FFF777FF06498878FFF7E7
:102E100093FF05498878FFF7AFFF00BD1100002040
:102E2000050000200D0000200900002000B5064923
:102E30008878FFF7C1FF05498878FFF75DFF0449EF
:102E40008878FFF779FF00BD110000200500002001
:102E50000D00002010B5FDF727FF10BD00B58FB0A5
:102E6000282105A8FDF7F5F914216846FDF7F1F9C9
:102E70000120059000040690002007900120099091
:102E800002200C90C1030D914FF4E0110E9105A8A2
:102E9000FEF700F908B1FDF770FB0F20009002204B
:102EA0000190002002904FF4806003900020049075
:102EB00002216846FDF7CAFF08B1FDF75EFB0FB0BF
:102EC00000BD704710B50248FEF713FD10BD0000AD
:102ED0007C02002010B50248FEF70BFD10BD00007B
:102EE000C402002010B50248FEF703FD10BD00002B
:102EF0000C03002010B502681C4B984208D0B0F1BA
:102F0000804F05D01A4B984202D01A4B984203D1F9
:102F100022F070024B681A43144B984208D0B0F16B
:102F2000804F05D0124B984202D0124B984203D1E9
:102F300022F44072CB681A4322F080034C6943EAC2
:102F4000040202608B68C3620B688362074B98427D
:102F500001D10B69036301234361036903F001039A
:102F60001BB1036923F00103036110BD002C014074
:102F7000000400400008004030B501F01F050124A6
:102F800004FA05F3046A9C430462046A01F01F0515
:102F900002FA05F52C43046230BD30B50C46816859
:102FA00021F47F4142EA032525432943816030BD56
:102FB0000A46816821F0700142F0070319438160DD
:102FC0007047000030B5026A056A25F00105056208
:102FD0004368846924F0700424F003040D682C43D2
:102FE00022F002028D682A430D4DA84206D100BF8F
:102FF00022F00802CD682A4322F00402084DA842BC
:1030000007D123F4807323F400734D692B438D693A
:103010002B43436084614D684563026230BD00000C
:10302000002C014030B5026A056A25F010050562E2
:103030004368846924F4E04424F440740D6844EA4D
:10304000052422F020028D6842EA05120E4DA842A6
:1030500007D100BF22F08002CD6842EA051222F0BB
:103060004002094DA84209D123F4806323F4006390
:103070004D6943EA85038D6943EA850343608461B2
:103080004D688563026230BD002C014030B5026A94
:10309000056A25F4807505624368C46924F07004EC
:1030A00024F003040D682C4322F400728D6842EA78
:1030B00005220F4DA84207D100BF22F40062CD685F
:1030C00042EA052222F48062094DA84209D123F484
:1030D000805323F400534D6943EA05138D6943EA95
:1030E00005134360C4614D68C563026230BD0000D2
:1030F000002C014030B5036A056A25F4805505624D
:103100004468C26922F4E04222F440720D6842EA47
:10311000052223F400538D6843EA0533064DA84287
:1031200004D124F480444D6944EA85144460C261AA
:103130004D680564036230BD002C014030B50B467C
:103140001446026A056A25F001050562816921F0CD
:10315000F00141EA041122F00A021A43816102627D
:1031600030BD30B50B461446026A056A25F01005DD
:103170000562816921F4704141EA043122F0A00224
:1031800042EA03128161026230BD70B505466C6A85
:103190000020E085E0842046FEF7F3FE70BD70B5A8
:1031A00006460025746A20684069C0F3C01594F88B
:1031B0004100212805D125B10020E084204600F0FF
:1031C000C8F820684069C0F3801594F842002228AE
:1031D00005D125B10020E085204600F074F8606C30
:1031E00040F0100060642046FEF7CBFE70BD70B565
:1031F00005466C6A2868006800F02000002842D16B
:10320000E08500BF00BF21680C3151E8001F21F4A8
:10321000807021680C3141E80002002AF3D100BF20
:1032200000BF00BF2168143151E8001F21F00100E8
:103230002168143141E80002002AF3D100BF00BF29
:1032400000BF2168143151E8001F21F040002168BF
:10325000143141E80002002AF3D100BF202084F895
:103260004200206B01280ED100BF00BF21680C3145
:1032700051E8001F21F0100021680C3141E80002E4
:10328000002AF3D100BF00206063206B012804D125
:10329000A18D2046FEF7F8FD02E02046FFF726F953
:1032A00070BD70B505466C6A01206063206B012813
:1032B00005D1A08D41082046FEF7E6FD02E020463C
:1032C000FFF715F970BD00BF00BF02680C3252E86D
:1032D000002F22F4907102680C3242E80013002B98
:1032E000F3D100BF00BF00BF0268143252E8002FC4
:1032F00022F001010268143242E80013002BF3D1DE
:1033000000BF016B01290ED100BF00BF02680C3263
:1033100052E8002F22F0100102680C3242E800133C
:10332000002BF3D100BF202180F84210002101635F
:10333000704710B504462068C06820F0400021683E
:10334000C860202084F841002046FFF7D1F8002013
:1033500010BD00BF00BF02680C3252E8002F22F0FF
:10336000C00102680C3242E80013002BF3D100BF09
:10337000202180F841107047F8B5044694F84200C7
:10338000222875D1A068B0F5805F0CD1206950B9B2
:103390000025A66A20684068C0F308003080A06A53
:1033A000801CA06215E0A56A0026A068B0F5805FC9
:1033B00003D0A06828B9206918B92068406828702F
:1033C00004E02068406800F07F002870A06A401C7C
:1033D000A062E08D401E80B2E085002846D12068C2
:1033E000C06820F020002168C8602068C06820F410
:1033F00080702168C8602068406920F00100216861
:103400004861202084F8420000206063206B01287E
:1034100026D10020206300BF00BF21680C3151E895
:10342000001F21F0100021680C3141E80002002A41
:10343000F3D100BF2068006800F0100010280AD106
:1034400000BF00200090206800680090206840685D
:10345000009000BF00BFA18D2046FEF715FD02E0E1
:103460002046FFF743F80020F8BD01E00020FBE70D
:103470000220F9E770B504462168096921F440513A
:10348000E2681143226811612269A16811436269EF
:1034900041EA02052168C96841F20C62914329435F
:1034A0002268D1602168496921F44071A269114301
:1034B000226851612D4A2168914202D1FDF7A2FD97
:1034C00001E0FDF78FFD00EBC00101EB0011626828
:1034D0009200B1FBF2F100EBC00202EB0012636854
:1034E0009B00B2FBF3F26423B2FBF3F202EBC203E4
:1034F00003EB0212A1EB8201322202EB01116422E2
:10350000B1FBF2F101F0F00100EBC00202EB00129E
:1035100063689B00B2FBF3F26423B2FBF3F201EBAE
:10352000021200EBC00101EB001163689B00B1FBCC
:10353000F3F100EBC00303EB00136668B600B3FBC6
:10354000F6F36426B3FBF6F303EBC30606EB0313B3
:10355000A1EB8301322303EB01116423B1FBF3F1EF
:1035600001F00F0111442268916070BD00380140E4
:1035700077B581B0044615460298A062A585002063
:103580006064222084F842002848E16B8862284861
:10359000E16BC8622748E16B08630020E16B486378
:1035A00002AE32682368191D2B46E06BFDF76EF9F9
:1035B00000BF0020009020680068009020684068EC
:1035C000009000BF00BF206970B100BF00BF21683C
:1035D0000C3151E8001F41F4807021680C3141E842
:1035E0000002002AF3D100BF00BF00BF21681431E0
:1035F00051E8001F41F001002168143141E8000248
:10360000002AF3D100BF00BF00BF2168143151E888
:10361000001F41F040002168143141E80002002AF7
:10362000F3D100BF002004B070BD0000EF310008EE
:10363000A33200089F310008014691F8410021287B
:1036400028D18868B0F5805F0BD1086948B90A6A4B
:103650001088C0F308000B685860086A801C086274
:1036600005E00B6A581C086218780B685860C88C13
:10367000401E80B2C88458B90868C06820F0800035
:103680000B68D8600868C06840F040000B68D860DC
:10369000002070470220FCE710B50248FEF772FCDC
:1036A00010BD00005403002010B50248FEF76AFC6C
:1036B00010BD00009C03002000BFFEE70248006828
:1036C000C0F30220704700000CED00E010B50028A8
:1036D00004DB0A07130E054A135406E00A07140E0A
:1036E000034A00F00F031B1FD45410BD00E400E098
:1036F00018ED00E0FDF7E4FAFFF7B0FBFEF786FFF8
:10370000FEF752FFFFF738F8FFF7BAF8FFF7EEF8C9
:10371000FFF746F9FFF79EF9FFF7B8F91A48FEF7E9
:1037200025F80B2219491A48FEF775FB0C21194898
:10373000FEF7D0FA00211748FEF7CCFA042115480D
:10374000FEF7C8FA08211348FEF7C4FA042112480C
:10375000FEF7C0FA08211048FEF7BCFA0C210F480A
:10376000FEF7B8FA08210D48FEF7B4FAFFF744FB5C
:1037700009E0FCF743FE0A20FDF7D6F800F010F848
:103780000A20FDF7D1F8F4E77C020020F4040020C1
:103790005403002034020020C40200200C03002047
:1037A0002DE9FF5F7548C07D022803D07348C07DB6
:1037B000012806D14B231A461946184600F0E4F8B2
:1037C00036E06E48807D022803D06C48807D012859
:1037D00007D16FF04A031A461946184600F0D4F88C
:1037E00026E06648007D022803D06448007D012859
:1037F00008D16FF059035A2246216FF04A0000F0B9
:10380000C3F815E05D48407D022803D05B48407D49
:10381000012807D14E235A426FF04001462000F0A4
:10382000B3F805E000231A461946184600F0ACF834
:1038300052498868002100F009FC05D24B235A4206
:103840001946104600F0A0F84C498868002100F0A5
:10385000FDFA06D26FF04A034B221946104600F0DB
:1038600093F846490868002100F088FA05D14349D9
:103870004868002100F082FA7DD04048D0F80480EA
:10388000D0F800908068039028F000403C490090F8
:1038900000F0DCFA01D24FF0000829F0004038496E
:1038A000009000F0D3FA01D24FF00009039820F005
:1038B00000403349009000F0C9FA01D20020039083
:1038C0004946404600F0F4FB2E49009000F0F2FA21
:1038D00082464946404600F021F92A49009000F00E
:1038E000E9FA83464946404600F018F92549009018
:1038F00000F0E0FA02904946404600F0D9FB214929
:10390000009000F0D7FA0190504600F06BFA04B234
:10391000584600F067FA05B2029800F063FA06B262
:10392000019800F05FFA07B24B2C00DD4B2414F134
:103930004B0F01DA6FF04A044B2D00DD4B2515F1DA
:103940004B0F01DA6FF04A054B2E00DD4B2616F1C6
:103950004B0F01DA6FF04A064B2F00DD4B2717F1B2
:103960004B0F01DA6FF04A073B46324629462046A4
:1039700000F00AF800BFBDE8FF9F00001805002016
:10398000CDCCCC3D0000C8422DE9F04107460C46A5
:1039900015461E46002F0DDD5C4800684763012276
:1039A000D1035B48FDF774F900224FF48041584879
:1039B000FDF76EF9002C0CDD544800688463012289
:1039C00011465448FDF764F9002202215148FDF7E1
:1039D0005FF9002F0EDA78424C49096848630022EB
:1039E0004FF400414A48FDF753F90122910348483A
:1039F000FDF74EF9002C0DDA6042444909688863EE
:103A0000002201214348FDF743F9012202214148E8
:103A1000FDF73EF967B93D48006847630122D103CD
:103A20003B48FDF735F9012291033948FDF730F99C
:103A300064B9364800688463012211463548FDF7B1
:103A400027F9012202213348FDF722F9002D0DDD6F
:103A50002E480068C563012291022F48FDF718F92E
:103A600000224FF400612C48FDF712F9002E0CDD06
:103A7000264800680664012208212748FDF708F956
:103A8000002210212448FDF703F9002D0EDA6842C8
:103A90001E490968C86300224FF480611E48FDF783
:103AA000F7F80122D1021C48FDF7F2F8002E0DDADA
:103AB0007042164909680864002208211648FDF77B
:103AC000E7F8012210211448FDF7E2F865B90F4824
:103AD0000068C563012291020F48FDF7D9F8012261
:103AE000D1020D48FDF7D4F866B9084800680664AD
:103AF000012208210848FDF7CBF8012210210648D1
:103B0000FDF7C6F80020BDE8F08100003402002077
:103B10000010014000080140000C014090EA010F34
:103B200048BF81F0004100F1CA82421A3CBF801AAE
:103B300089184FEAD0524FF07F4C1CEA410FA2EB9C
:103B4000D15318BF9CEA026F00F03B804FF0004C4D
:103B50004CEA00204CEA012121FA03FC10EB0C0C8A
:103B60001ED202F1FF325FEA1C2040EBC25038BF88
:103B700070471CF07F0F4FEA400C18BFBCF17F4F1D
:103B800038BF7047C3F12003994008BF20F00100FF
:103B9000BCF17F4F38BF7047A0F1C04000F051BA70
:103BA0004FEA3C00000A40EBC25028BF1CF0FF0F58
:103BB0004FEA400CE6D018BFBCF17F4F38BF7047CA
:103BC000EAE79CEA026F05D010EA5C0F08BF00F03C
:103BD0000040704710B500F0EEF900BF64FBBE3E38
:103BE000401058BFC0F14040491058BFC1F140419A
:103BF0008142EFF3008070474FF47F0C1CEAD01233
:103C00001EBF1CEAD11392EA0C0F93EA0C0F00F0CE
:103C1000858090EA010F48BF42F4807240F4000CA6
:103C200041F400002CF07F4120F07F4000B581423C
:103C3000A2EB03020FF2081CACEB504EC0F10000E7
:103C40009EF800E04FEA4E0E00FB0EFC38BF490024
:103C50004FEA2C1C02F5FA020CFB0EF34FEACE1EC3
:103C60004FEA112C4FEAC1210EEB635E42EB224278
:103C70000EFB0CFC4FEA1C5300FB03114FEA112C06
:103C80004FEA01310EFB0CFC4FEADC4C00FB0C113F
:103C9000C14228BF09184CEB03335DF804EB10EB6D
:103CA000410143EBC250B2F57C0F38BF704729D5B4
:103CB00012F0F00F1CBF00F1C04000F00040704750
:103CC000008182838485868788898B8C8D8E8F91F5
:103CD0009293959697999A9C9D9FA0A2A3A5A7A819
:103CE000AAACAEB0B2B3B5B7B9BCBEC0C2C5C7C945
:103CF000CCCED1D4D7D9DCDFE2E6E9ECF0F3F7FAA9
:103D0000FE0000004FEA400C0CF1807CBCF17E4FBD
:103D100028BF7047B0F1C04000F093B990EA010F9E
:103D20000CEAD11348BF42F48072624538BF634544
:103D300007D213F47F0F16D080EA010000F0004094
:103D4000704710B500F037F9097EFC3E00F005B869
:103D500080EA010000F00040704780EA010000F0B6
:103D6000004000F06EB912F47F0F04BF02487047A4
:103D700080EA010000F065B90000C07F50EA010C44
:103D800000F113801CF5000F58BFBCF5000F01D4E3
:103D90008842704707D710F5000F58BF11F5000F84
:103DA00015D488427047894270471CF5000F04D52E
:103DB000BCF5000FF7D5814270474FF0807C1CEBBB
:103DC000400F38BF1CEB410F01D28142704710B544
:103DD00000F0F1F8922449004FF000504FF080516C
:103DE000FFF7FEBE41000B0ED3F19E0208D950F43E
:103DF00000034FEA032323FA02F048BF4042704712
:103E000010B500F0D8F800BF499224800020704718
:103E10006FF0004282EA20007047000010F000417D
:103E200048BF4042B0FA80F310FA03F2C3F19D0399
:103E30000BD051EAC35101EB1220530638BF704733
:103E400000F1010008BF20F00100704750EA010CAA
:103E500000F113801CF5000F58BFBCF5000F01D412
:103E60008842704707D710F5000F58BF11F5000FB3
:103E700015D488427047894270471CF5000F04D55D
:103E8000BCF5000FF7D5814270474FF0807C1CEBEA
:103E9000400F38BF1CEB410F01D28142704710B573
:103EA00000F089F8922449004FF000504FF0805103
:103EB000FFF796BE4FF47F0C1CEAD0121EBF1CEA1F
:103EC000D11392EA0C0F93EA0C0F00F0478090EAAE
:103ED000010F48BF42F480724FF0004C4CEA0020C2
:103EE0004CEA012102EB0302A0FB0113A2F5000240
:103EF000002918BF43F001035B0028BF4FEA3303DA
:103F000042EB22425FEA132C4CEBC2502EBFBCEBBB
:103F1000436FB2F57C0F70474FEA036CBCF1004F62
:103F200008BF20F00100B2F57C0F38BF70470BD5F9
:103F300082F0FF0212F5803FC8BF704700F1C04019
:103F4000D8BF00F00040704700F5000C5FEA4C0C51
:103F500048BF7047B0F1C04000F073B890EA010F5D
:103F60000CEAD11348BF42F48072624538BF634502
:103F700004D280EA010000F00040704710B500F064
:103F80001AF800BF8900013E00F007B800F009B838
:103F90005FEA410C5FEA1C6C08D080EA010000F087
:103FA00050B85FEA400C5FEA1C6CF6D14FF000405D
:103FB000A0F5800070470EF1020E2EF0030E5EF8A1
:103FC000044B244204D44FEA4102B2F17F4F11D88E
:103FD0004FEA4003B3F17F4F0CD80ED14FEAD07CAB
:103FE000B2F17F4F0CEB4C0C0CF1020C08BF4CEB08
:103FF000D17C04E04FF0080C01E04FEAD17C0CEBDF
:104000004C0324FA03F404F00704B4F1040C06D2C0
:104010000EEB840CBDE810404CF0010C6047DFE86B
:104020000CF0070802024FF00040A0F5800010BD20
:104030000846420018BFD2F1807288BF00F00040ED
:1040400010BDFF2141EAD050C005704751EA000C75
:1040500000F113801CF5000F58BFBCF5000F01D410
:104060008142704707D711F5000F58BF10F5000FB8
:1040700015D481427047894270471CF5000F04D562
:10408000BCF5000FF7D5884270474FF0807C1CEBE1
:10409000410F38BF1CEB400F01D28842704780EAC5
:1040A000010081EA000180EA0100FFF7F8BE00008C
:1040B00090EA010F48BF81F000413FF536AD421A4A
:1040C00004D882F00042A0EB020011444FEAD05223
:1040D0004FF07F4C1CEA410FA2EBD15318BF9CEA72
:1040E000026F4AD04FF0004C4CEA00204CEA01210C
:1040F00021FA03FCB0EB0C0C0FD412F0FE0F36D0FB
:104100005FEA4C001DD5001240EBC25038BF70472B
:104110001CF03F0F18BF70470BE0A2F101025FEAED
:104120001C2040EBC25038BF70471CF07F0F18BFF7
:104130007047C3F12003994014BF401E20F00100D6
:10414000704780084FEA122308BF7047B0FA80FC1E
:10415000A2EB0C02CCF1280C60FA0CF093EA122FBF
:1041600004BF00EBC25070474FEAC3707047130A98
:104170005FEADC1008BF7047F6E79CEA026F04D0E4
:1041800010EA5C0F08BF0020704710B5FFF713FF5F
:1041900040DFF63E81F00040704702030405060749
:1041A00008090A0B0C0D0E0F101001020000000090
:1041B00000000000010203040607080900000000D7
:1041C00001020304E4410008000000202800000070
:1041D000280100080C42000828000020700B000095
:1041E0004401000800000000005F0091945A5A5AF0
:1041F000873C2B91968C0082B400000000000000E8
:0C420000100000000100000000127A0015
:04000005080000ED02
:00000001FF
