:020000040800F2
:100000006806002001010008252800086B2200086E
:10001000B1270008390B00087938000800000000FB
:10002000000000000000000000000000732A00082B
:10003000110D000800000000712A0008ED2B0008D7
:100040001B0100081B0100081B0100081B01000820
:100050001B0100081B0100081B0100081B01000810
:100060001B0100081B0100081B0100081B01000800
:100070001B0100081B0100081B0100081B010008F0
:100080001B0100081B0100081B0100081B010008E0
:100090001B0100081B0100081B0100081B010008D0
:1000A0001B0100081B0100081B0100081B010008C0
:1000B0001B0100081B0100081B0100081B010008B0
:1000C0001B0100081B0100081B0100081B010008A0
:1000D0001B0100081B0100081B0100086D38000807
:1000E0001B0100081B0100081B010008DFF80CD0F1
:1000F00000F062FC00480047D94100086806002073
:100100000648804706480047FEE7FEE7FEE7FEE7B1
:10011000FEE7FEE7FEE7FEE7FEE7FEE74F2C0008FE
:10012000ED000008202A04DB203A21FA02F0002129
:10013000704721FA02F3D040C2F1200291400843F7
:1001400019467047D2B201E000F8012B491EFBD2DC
:1001500070470022F6E710B513460A4604461946D2
:10016000FFF7F0FF204610BD10B5002200E0521C42
:10017000835C8C5CA34201D1002BF8D1D8B2E1B2F0
:10018000401A10BD034611F8012B00F8012B002A7C
:10019000F9D118467047000070B50F4D00B92868B6
:1001A000002412E00A4602E09E4203D0521C13785B
:1001B000002BF9D1DAB2224305D02BB124B10021B2
:1001C00000F8011B04E00446401C0678002EE9D12B
:1001D0002860204670BD00006400002070B506460F
:1001E00003F06CFB046805460A220021304600F04B
:1001F00078FA2C6070BDF0B480EA0102D40F42009E
:10020000B2EB410F02D20246084611464A0042D0E4
:10021000C30DDDB2C1F3C752AD1A202D35DAC1F3DB
:10022000160141F4000204B15242C5F1200602FA5F
:1002300006F12A411044B3EBD05F23D0C4B1012DA5
:10024000A0EBC35009DCF0BC4FF0004202EAC352FD
:10025000DBB200F5000000F085BA400000F18070CC
:1002600000EBC350A0F1807040EAD170490009E072
:10027000490841EAC071A0EBC35000F500004008F6
:1002800000EBC350F0BC00F064BA6142012202EB03
:100290004101001BF6E7F0BC704781F00041AAE77E
:1002A00080F00040A7E780EA010210B502F00043A9
:1002B000400022D04A001FD0010E01EB1261C0F3B2
:1002C0005600C2F3560240F4000042F40002A0FBC4
:1002D000022000047F39140400D0401C50EA124070
:1002E00001D44000491EC2B20C0604EBD010401CE1
:1002F0004008802A02D003E0002010BD20F0010059
:10030000002900DA0020184310BD30B480EA010251
:1003100002F0004530F0004221F0004013D090B1CF
:10032000C30DD40DC2F31601C0F31600E41A41F454
:10033000000140F400027D34914201D3641C00E0CE
:100340004900002C02DA30BC002070474FF4000056
:100350000023914201D3891A034340084FEA410127
:10036000F7D151B1914202D14FF0004105E002D2E4
:100370004FF0010101E06FF0010103EBC45028448C
:1003800030BC00F0E6B9420005D0C0F3C75252427B
:10039000914201DC0020704700EBC15070472DE90D
:1003A000FE4F804681EA0300C00F0C46009021F00A
:1003B000004123F00045B8EB0200A94105D24046B8
:1003C000214690461C460B46024623F0004010434F
:1003D00047D0270DC7F30A00C3F30A510290401A11
:1003E000019040286BDAC3F3130040F4801B00989F
:1003F000924620B10023D2EB030A63EB0B0B01986A
:100400005946C0F14002504600F04AF906460D46F2
:1004100050465946019A00F052F910EB080061412C
:10042000002487EA115284EAE7731A4340D0009A05
:1004300062B3019A012A4FEA075215DC001B61EBF7
:1004400002014FF0004202EA0752CDE90042001CCF
:1004500041F5801132462B4600F0C1F903B0BDE8EA
:10046000F08F40462146F9E7001B61EB0201001CBA
:1004700041F5801300185B412018A2F5001747EBE7
:10048000030140EAD570B6196D4111E06D084FEADD
:10049000360645EAC0754FEA0752001B61EB0201C0
:1004A000001C41F5801149084FEA30000019514104
:1004B00032462B4603B0BDE8F04F00F081B90098FA
:1004C000012240000023D0EB020263EBE0730098AE
:1004D00021464FEAE074B8EB000061EB0401E9E764
:1004E00083F000435BE781F0004158E72DE9FE4FC0
:1004F00081EA030404F0004421F0004100944FF02D
:10050000000B23F0004350EA01045ED052EA0304DA
:100510005BD0C3F30A54C1F30A552C44A4F2F3345C
:100520000194A0FB0254C1F3130141F48011C3F301
:10053000130343F4801301FB024400FB034E840ABF
:10054000970A44EA815447EA8357A4FB0768029557
:100550008D0A05FB07854FEA932C04FB0C542705F5
:10056000029D4FEA065847EA1637B5EB08056EEBD1
:10057000070C870E920E47EA811742EA8312A7FB07
:100580000201B6EB0B0164EB00042B0D43EA0C33C4
:100590005E1844EB1C50DA465146E7FB0201C5F3F6
:1005A00013044FEA0B3343EA14534FEA0432019C1D
:1005B00043EA0603A4F10C040294009CCDE900B4C4
:1005C00000F00DF903B0BDE8F08F00200146F9E717
:1005D000C10F80EAE0700844CA079623002100F0AA
:1005E000C1B896230022114600F0BCB800F00042CA
:1005F00030F000400AD0C10D01F56071C0F3160063
:1006000042EA0151C20840071143704700200146E9
:10061000704730B50B46014600202022012409E036
:1006200021FA02F59D4205D303FA02F5491B04FAAB
:1006300002F52844151EA2F10102F1DC30BD2DE9BE
:10064000F05F0546002092469B4688460646814656
:1006500040241BE02846414647462246FFF762FDFC
:1006600053465A46C01A914110D3114618462246A5
:1006700000F016F82D1A67EB01084F4622460120BC
:10068000002100F00DF817EB00094E41201EA4F1E7
:100690000104DFDC484631462A464346BDE8F09F68
:1006A000202A04DB203A00FA02F100207047914032
:1006B000C2F1200320FA03F3194390407047202A27
:1006C00006DBCB17203A41FA02F043EAE07306E07A
:1006D00041FA02F3D040C2F120029140084319468A
:1006E00070472DE9F04791460F46804604460026A4
:1006F00014F8015B2DB100F071F90068405DC0078E
:10070000F6D12B2D02D02D2D18D0641E4A46394625
:10071000204600F067F927B13968A14201D1C7F836
:10072000008071054FF002040BD54042002803DD24
:1007300003F0C4F80460A007BDE8F08746F48066C3
:10074000E4E70028F8DA03F0B9F804606FF000403D
:10075000F2E70029A8BF7047401C490008BF20F0FD
:100760000100704710B4B0FA80FC00FA0CF050EAB7
:10077000010404BF10BC704749B1CCF1200421FA38
:1007800004F411FA0CF118BF012121430843A3EB33
:100790000C01CB1D4FEA00614FEA102042BF002040
:1007A00010BC704700EBC35010440029A4BF10BC1C
:1007B0007047401C490008BF20F0010010BC704782
:1007C00010B5141E73F1000408DA401C41F1000159
:1007D00092185B411A4301D120F0010010BD2DE9B0
:1007E000F04D92469B4611B1B1FA81F202E0B0FAA7
:1007F00080F220329046FFF753FF04460F4640EA4E
:100800000A0041EA0B0153465A46084313D01146E9
:1008100053EA010019D0C8F140025046FFF782FCAC
:1008200005460E46504659464246FFF739FF0843F3
:1008300005D0012004E020463946BDE8F08D0020B7
:10084000054346EAE0762C4337430A986305E40AF9
:10085000A0EB08000022FD0A44EA47540A3002D502
:1008600000200146E9E7010510196941DDE9084565
:1008700000196941BDE8F04DA2E72DE9F04D81EA8C
:10088000030404F0004B21F0004514464FF0000A29
:1008900023F0004150EA050220D054EA01021DD0A5
:1008A000C5F30A570246C5F31303C1F31300C1F39E
:1008B0000A5640F4801543F48013A7EB0608101B7A
:1008C000D64608F2FD3873EB050002D308F10108A3
:1008D00001E092185B41B8F1000F03DA00200146F5
:1008E000BDE8F08D00204FF48011064684460EE0EE
:1008F000171B73EB050705D3121B63EB05030643B8
:100900004CEA010C49084FEA300092185B4150EA6A
:100910000107EDD152EA030012D082EA040083EA13
:100920000501084305D0101BAB4106D2012200236C
:1009300006E000224FF0004302E06FF00102531086
:100940001AEB06004CEB085110EB0A0041EB0B01CF
:10095000BDE8F04DFFF734BFC1F30A52C1F31301F4
:1009600040F2FF3341F480119A4202DA002001463E
:10097000704740F233439A42A2F2334202DC5242C1
:10098000FFF7D0BBFFF78CBE30B5041E71F1000439
:1009900004DB4FF00044404264EB0101141E73F18C
:1009A000000405DB1C464FF00043524263EB040396
:1009B000994208BF904230BD064C074D06E0E06802
:1009C00040F0010394E8070098471034AC42F6D396
:1009D000FFF790FB5C4600087C4600080048704723
:1009E000C84500082DE9F05F8246007800271546CB
:1009F0008B460AF10104B946302801D09DB113E0BD
:100A000014F8010B0127782803D0582801D045B1EC
:100A10000AE00DB1102D07D10027102514F8010BA5
:100A200002E0082500E00A250026B0460EE005FB9E
:100A3000080005FB06F1012701EB10461FFA80F8BC
:100A4000B6F5803F00D3B94614F8010B294600F0F3
:100A500018F80028EBDABBF1000F05D00FB1641EC7
:100A600000E05446CBF80040B9F1000F06D002F088
:100A700025FF02210160C81EBDE8F09F48EA06403C
:100A8000FAE73A2800D2303820F02002412A01D378
:100A9000A2F13700884201D34FF0FF3070470000C9
:100AA00010B500F023F90122BDE810409103014880
:100AB00000F0EDBA000C01402DE9F047DFF86C9032
:100AC00004464FF4804800224146484600F0DFFAD1
:100AD000174F184E0025785D01F084FF70556D1C8E
:100AE000EDB2092DF7D301224146484600F0CFFA76
:100AF0007078207073280BD0412809D000206070D6
:100B0000A0707F20E07020716071A071BDE8F08757
:100B1000F078C04360703079C043A0707079E070A5
:100B2000B0792071F0796071307AEEE7000C014005
:100B30001445000870000020FEE74FF46171884200
:100B400001DD084602E0962800DA9620404203B212
:100B50001A461846114601F073BD4FF46171884280
:100B600001DD084602E0962800DA962003461A4680
:100B7000114601F065BD4FF46171884201DD084600
:100B800002E0962800DA9620404203B2002218467E
:100B9000114601F055BD4FF46171884201DD0846F0
:100BA00002E0962800DA96200023404202B2114665
:100BB000184601F045BD4FF46171884201DD0846D9
:100BC00002E0962800DA96200246002311461846D5
:100BD00001F036BD4FF46171884201DD084602E044
:100BE000962800DA962000220346114601F028BD1F
:100BF00030B44FF46171884201DD084602E0962866
:100C000000DA962041420BB2024630BC114618462B
:100C100001F016BD4FF46171884201DD084602E023
:100C2000962800DA962041420AB20346114601F0A6
:100C300007BD000010B51A4C00220121204600F02B
:100C400026FA00220221204600F021FA0022042187
:100C5000204600F01CFA00220821204600F017FA76
:100C600000221021204600F012FA00222021204606
:100C700000F00DFA00224021204600F008FA002280
:100C80008021204600F003FA064900200A685063DC
:100C90000A6890630A68D0630968086410BD0000A0
:100CA000000801405401002030B44FF461718842C3
:100CB00001DD084602E0962800DA9620414203460C
:100CC0000AB230BC1946104601F0BABC4FF461714B
:100CD000884201DD084602E0962800DA962041426B
:100CE0000BB21946024601F0ABBC00000648016891
:100CF00041F080710160054800214160016841F0C8
:100D00000101016070470000FCED00E0001000E010
:100D10007047000009480068406A094902B28889A2
:100D2000101A00B2B0F5004F02DA10F5004F00DCE7
:100D300000B24B68CA60184448607047C400002085
:100D40000000002009480068406A094902B2088A88
:100D5000101A00B2B0F5004F02DA10F5004F00DCB7
:100D600000B28B680A611844886070470C0100204B
:100D700000000020064800214160816005490968A3
:100D8000496AC16004490968496A01617047000005
:100D900000000020C40000200C01002072B6FEE715
:100DA00010B590F821100022022905D0042181639A
:100DB00080F82020012010BD01680B6823F00E038D
:100DC0000B6001680B6823F001030B6090F8403062
:100DD000C46B012101FA03F3636080F8211080F8ED
:100DE0002020104610BD000010B590F821100024FE
:100DF000022903D00421816301243DE001680A68CF
:100E000022F00E020A6001680A6822F001020A60FC
:100E10001A4A0168914201D1012121E0174A143296
:100E2000914201D110211BE0144A2832914201D194
:100E3000891515E0114A3C32914201D189140FE025
:100E40000E4A5032914202D14FF4803108E00B4AF1
:100E50006432914202D14FF4801101E04FF0807171
:100E6000064A083A5160012180F82110002180F8DB
:100E70002010416B01B18847204610BD0800024098
:100E800070B5044600F008F90546601C02D004481D
:100E90000078044400F000F9401BA042FAD370BD72
:100EA000540000202DE9F84FDFF8B8910024A9F193
:100EB000040B23460F2709F1040AABF1040EC9E025
:100EC0000125A5402A40AA427DD1674ED1F804C031
:100ED000ACEB0608B44532D014DCBCF1030F3AD0B9
:100EE00009DCBCF1000F2AD0BCF1010F1CD0BCF111
:100EF000020F31D11DE0BCF1110F17D0BCF1120F60
:100F00002AD119E0B8F5881F19D006DCB8F5803F62
:100F100015D0B8F5801F1FD111E0B8F5001F0ED015
:100F2000B8F5041F18D10AE0CB6815E0CB681B1D8B
:100F300012E0CB6808330FE0CB680C330CE08B6811
:100F40002BB1012B4FF0080303D0456104E00423CB
:100F500002E0056100E00023FF2A01D8064601E017
:100F600000F104064FEA840501D9A5F12005D6F861
:100F7000008007FA05FC28EA0C0803FA05F548EAA0
:100F80000508C6F800804D68ED0062D5374DAE69A2
:100F900046F00106AE61AD6924F0030605F00105D7
:100FA0000095334D06EB050CDCF80850A607360F0C
:100FB00007FA06F825EA0805DFF8B880404503D1AE
:100FC0004FF0000817E044E0DFF8AC80404502D164
:100FD0004FF001080FE0DFF8A480404502D14FF048
:100FE000020808E0DFF89880404502D14FF003087E
:100FF00001E04FF0040808FA06F848EA0508CCF8C2
:1010000008804D68D9F80060ED024D4601D51643C1
:1010100000E096432E604D68DAF80060AD02554658
:1010200001D5164300E096432E604D68DBF8006062
:10103000AD035D4601D5164300E096432E604D6832
:10104000DEF80060ED03754601D5164300E09643D7
:101050002E60641C0D682A46E5407FF431AFBDE880
:10106000F88F000008040140000011100010024039
:101070000000014000080140000C01400010014048
:10108000001401408068084000D0012070470AB178
:10109000016170470904FBE7014880687047000060
:1010A0005400002002488168027811448160704732
:1010B00054000020074810B5016841F0100101609C
:1010C000032000F075F80F2000F006F800F024F877
:1010D000002010BD0020024070B50D4D04464FF4B5
:1010E0007A712878B1FBF0F00A490968B1FBF0F099
:1010F00000F0DCFA48B9102C07D200222146501E1D
:1011000000F036F800206C6070BD012070BD00005A
:1011100054000020600000200C4808B5816941F0AF
:1011200001018161816901F001010091C16941F012
:101130008051C161C06900F080500090044841684E
:1011400021F0E06141F00071416008BD00100240F3
:1011500000000140002809DB00F01F02012191403E
:101160004009800000F1E020C0F800117047000045
:10117000F0B40E4B1B680C46C3F30223C3F1070502
:10118000042D00D90425191D072901D2002300E0F0
:10119000DB1E012606FA05F1491E214099409E40BA
:1011A000761E16403143F0BC02F078BB0CED00E037
:1011B000064900F0070208684FF6FF03184040EAAE
:1011C0000220034A10430860704700000CED00E065
:1011D0000000FA052DE9F0470F46050061D0434EA7
:1011E000306800F00700B84209D2306820F00700EC
:1011F00038433060306800F00700B84251D12868A9
:101200003B4C810712D5400703D5606840F4E0608D
:1012100060602878000703D5606840F46050606023
:101220006068A96820F0F000084360602878C00773
:1012300028D06868012810D02168022810D08907BA
:1012400000292EDA616821F0030101436160FFF794
:1012500023FF804641F288390DE021688903EFE7DA
:101260008901EDE7FFF718FFA0EB0801494502D916
:101270000320BDE8F0876068696800F00C00B0EBFF
:10128000810FEFD1306800F00700B8420BD9306809
:1012900020F0070038433060306800F00700B842A3
:1012A00001D00120E5E72878400705D56068E968A6
:1012B00020F4E060084360602878000706D5606885
:1012C000296920F4605040EAC100606000F038F8FD
:1012D0006168084AC1F30311515CC84006490860BF
:1012E00006480068FFF7F8FE0020C2E70020024031
:1012F000001002402F450008600000205800002028
:101300000448054900684968044AC1F30221515C58
:10131000C840704760000020001002403F450008B0
:101320000448054900684968044AC1F3C221515C78
:10133000C840704760000020001002403F45000890
:101340000E4A51680E4801F00C03042B11D0082BF3
:101350000FD10C48C1F38343C903C05C0AD551685F
:10136000084AC1F34041921E515C054A5043B0FB0C
:10137000F1F07047044948437047000000100240F4
:1013800000127A001F45000800093D002DE9F84FC2
:10139000040070D02078C04DC00749D06868C0F301
:1013A0008100012807D06868C0F38100022809D1B4
:1013B0006868C00306D52868800339D560680028AE
:1013C000E7D035E06068B0F5803F0BD010B1B0F5E4
:1013D000A02F11D0286820F480302860286820F4DD
:1013E000802002E0286840F480302860606890B176
:1013F000FFF752FE06460AE0286840F48020286085
:10140000F0E700BFFFF748FE801B642873D8286808
:101410008003F7D50CE0FFF73FFE064605E000BF6E
:10142000FFF73AFE801B6428F0D828688003F7D4C1
:1014300020789A4E80074FF001094FF0000839D507
:10144000686810F00C0F07D06868C0F381000228AC
:1014500009D16868C00306D42868800714D52069BC
:10146000012808D110E02069B0B1C6F80090FFF75C
:1014700013FE074605E00AE1FFF70EFEC01B022837
:10148000C4D828688007F7D52868616920F0F8007B
:1014900040EAC10028600DE0C6F80080FFF7FCFDBF
:1014A000074604E0FFF7F8FDC01B022823D8286890
:1014B0008007F7D4207800072CD57948A169D9B1E5
:1014C000C0F80090FFF7E8FD074604E0FFF7E4FDF1
:1014D000C01B02280FD8686A8007F7D571484FF4FF
:1014E000FA510068B0FBF1F0009000BF0098411E77
:1014F0000091FAD20EE080E0C0F80080FFF7CCFD4A
:10150000074604E0FFF7C8FDC01B022875D8686ACB
:101510008007F7D42078400760D5E8690027C0002D
:1015200008D4E86940F08050E861E869012700F0DC
:10153000805000905C480168C90513D40168834657
:1015400041F480710160FFF7A7FD824606E000BF0D
:10155000FFF7A2FDA0EB0A0064284ED8DBF80000DC
:10156000C005F5D5E06801280AD008B1052813D0D8
:10157000286A20F001002862286A20F0040002E0B6
:10158000286A40F001002862E06841F2883B98B187
:10159000FFF782FD82460BE0286A40F004002862D3
:1015A000EEE700BFFFF778FDA0EB0A0159455AD8D6
:1015B000286A8007F6D50CE0FFF76EFD824605E04D
:1015C000FFF76AFDA0EB0A0159454CD8286A80074D
:1015D000F6D41FB1E86920F08050E861E06988B373
:1015E0006968C1F38101022944D00228C6F86080ED
:1015F00004D0FFF751FD044638E034E0FFF74CFD1E
:10160000074604E0FFF748FDC01B02282BD82868D6
:101610008001F7D4206AB0F5803F05D16868A168E1
:1016200020F4003008436860D4E908010843696881
:1016300021F4741108436860C6F86090FFF72CFD30
:10164000044606E025E000BFFFF726FD001B022848
:1016500009D828688001F7D51BE000BFFFF71CFD03
:10166000001B022802D90320BDE8F88F28688001FA
:10167000F4D40EE00128F7D06868226A00F48031C3
:10168000914204D1616A00F47010884201D00120B7
:10169000EAE70020E8E700000010024000004242B4
:1016A00080044242600000200070004010B5401EDF
:1016B000B0F1807F01D3012010BD4FF0E0246061C4
:1016C0000F21601702F0EAF80020A06107202061D6
:1016D000002010BD10B590F83C20012A22D0012234
:1016E00080F83C20CA688C6822F4407222434C681F
:1016F00022F4806222430C6822F4006222430C69C7
:1017000022F4805222434C6922F400522243C969D8
:10171000002322F480420A4301684A6480F83C3086
:10172000002010BD022010BD70B590F83C20012AA9
:1017300026D0012480F83C40022280F83D20036836
:101740005A689D6822F070060A6832435A600D4B51
:1017500002689A4208D0B2F1804F05D00A4B9A42F3
:1017600002D00A4B9A4204D1496825F080031943FC
:10177000916080F83D40002180F83C10084670BD23
:10178000022070BD002C0140000400400008004011
:1017900010B5040003D094F83D0010B107E001201B
:1017A00010BD002084F83C00204600F01FF8022005
:1017B00084F83D00211D206801F04AFA012084F8D8
:1017C000460084F83E0084F83F0084F8400084F826
:1017D000410084F8420084F8430084F8440084F80F
:1017E000450084F83D00002010BD000008B50C4AFB
:1017F00001680C48914207D1816941F4006181611F
:10180000806900F4006009E0074A914207D1C1698C
:1018100041F00401C161C06900F00400009008BDFE
:10182000002C0140001002400008004070B5044642
:1018300090F83C000025012817D0012684F83C6070
:10184000022084F83D002068826822F0770222F4AA
:101850007F4282600868502838D00DDC20284FD0A5
:1018600005DC90B3102811D14AE0022070BD302869
:1018700046D040280AD13BE060282FD070280DD0F8
:10188000B0F5805F03D0B0F5005F12D0012584F879
:101890003D60002084F83C00284670BDCB68D1E94B
:1018A0000121206801F01DFA2068816841F077016C
:1018B00009E0CB68D1E90121206801F012FA206823
:1018C000816841F480418160E1E719E0CA684968B4
:1018D000206801F0BBFA5021206806E0CA68496818
:1018E000206801F0C4FA6021206801F004FACEE714
:1018F000CA684968206801F0A9FA40212068F4E725
:10190000226801461046F0E72DE9F0410D4604003B
:1019100003D094F83D0018B108E00120BDE8F08143
:10192000002084F83C00204600F040F8022084F8B3
:101930003D002068816844F2070291438160211DC7
:10194000206801F085F9226890689169166A2B6811
:10195000AF69034340F20330814341EA0721A8689D
:10196000EF6908434FF6FC418843E96840EA0720E5
:10197000014328692F6A000140EA0730084369687B
:101980006D6926F0220646EA051529439360226810
:10199000906154F8460B0162012004F81F09E075BC
:1019A0002076E0762077A0750020B7E7F0B585B007
:1019B0000026009601960296039601682D4801259F
:1019C0002D4F2E4CB1F1804F23D02D4A91421ED184
:1019D000C16941F00201C161C16901F002010491D4
:1019E000816941F0080181618069694600F0080061
:1019F00004903020009002953846FFF753FA606853
:101A000020F4406040F0E06040F40060606005B0A9
:101A1000F0BDC16941F00101C161C16901F001017D
:101A20000491816941F004018161816901F004013F
:101A30000491816941F0080181618069694600F083
:101A4000080004904FF40040009002950D48FFF705
:101A500029FA0820CDE90006694602953846FFF7C5
:101A600021FA606820F4407040F0E06040F480703B
:101A7000CCE7000000100240000C014000000140D3
:101A8000000400400008014070B590F83E60044634
:101A900090F83F5090F8423090F84320022021B156
:101AA00004290ED0012E1BD114E0012E18D1012BD8
:101AB00016D184F83E0084F84200012200212068FB
:101AC00020E0012D0CD1012A0AD184F83F0084F8CE
:101AD000430014E0012D03D1012B01D1012A01D0D3
:101AE000012070BD84F83E0084F83F0084F8420075
:101AF00084F8430001220021206801F0E5F801226A
:101B00000421206801F0E0F82068016841F001013B
:101B10000160002070BD000000B585B0002100917B
:101B2000019102910391164B0268164802219A42D4
:101B30000FD1826942F0040282618069039100F052
:101B4000040004904FF47060CDE9000169460E482E
:101B500011E00E4B9A4210D1826942F00802826174
:101B60008069039100F0080004904FF47070CDE993
:101B7000000169460648FFF795F905B000BD000071
:101B8000002C014000100240000801400008004005
:101B9000000C014070B5044690F83C0000260D464C
:101BA00001280FD0012084F83C006AB1042A1DD01E
:101BB000082A2FD00C2A3FD00126002084F83C00B0
:101BC000304670BD022070BD206801F09DF820688D
:101BD000816941F0080181612068816921F0040177
:101BE0008161206881692A69114311E0206801F050
:101BF000B3F82068816941F40061816120688169DE
:101C000021F480618161206881692A6941EA0221A9
:101C10008161D2E7206801F0CBF82068C16941F00A
:101C20000801C1612068C16921F00401C161206817
:101C3000C1692A69114311E0206801F0E5F82068C4
:101C4000C16941F40061C1612068C16921F480610A
:101C5000C1612068C1692A6941EA0221C161ACE71A
:101C600010B5040003D094F83D0010B107E0012046
:101C700010BD002084F83C00204600F01EF8022031
:101C800084F83D00211D206800F0E2FF012084F867
:101C9000460084F83E0084F83F0084F8400084F851
:101CA000410084F8420084F8430084F8440084F83A
:101CB000450084F83D00002010BD704710B5044673
:101CC000022249B104290ED0082913D094F841000A
:101CD000012816D0012010BD94F83E000128F9D14A
:101CE00084F83E200FE094F83F000128F2D184F8F8
:101CF0003F2008E094F840000128EBD184F8402010
:101D000001E084F841200122206800F0DDFF0F4946
:101D10002068884203D1426C42F400424264206849
:101D2000884208D0B0F1804F05D00949884202D0DE
:101D30000849884204D1816801F00701062903D0CF
:101D4000016841F001010160002010BD002C01403C
:101D5000000400400008004070477047F8B5016873
:101D600004460868CA684B6910F00F0F4FF0000571
:101D700059D003F0010602F49077374365D0C107CC
:101D800005D0D10503D5616C41F0010161644107C3
:101D900005D5D90703D0616C41F002016164810768
:101DA00005D5D90703D0616C41F0040161640107D6
:101DB00007D502F02001314303D0616C41F00801E6
:101DC0006164616C00293AD0800604D5900602D582
:101DD000204601F0C9FB20684069616CC0F38010A7
:101DE000090700D460B3204601F05BF82068406921
:101DF000400621D52068143050E8001F21F0400132
:101E000040E80012002AF5D1E06BA8B16D494163AA
:101E1000E06BFEF7E9FF002811D0E06B416B01B0E9
:101E2000BDE8F040084783060FD593060DD5204640
:101E3000BDE8F84001F098BB2046FFF78EFFF8BDE3
:101E40002046FFF78AFF6564F8BD266B2023012E2C
:101E50007CD1C6067AD5D60678D508684868009041
:101E600048694FF00206400640D5E16B08684068BB
:101E70000004000CE8D0A28D8242E5D9E085886993
:101E800020282DD020680C3050E8001F21F48071EC
:101E900040E80012002AF5D12068143050E8001FF5
:101EA00021F0010140E80012002AF5D12068143029
:101EB00050E8001F21F0400140E80012002AF5D14F
:101EC00084F84230256320680C3050E8001F21F070
:101ED000100140E80012002AF5D1E06BFEF760FF28
:101EE0006663A08DE18D401A81B22AE0A08DE18D5C
:101EF000401A81B2E08D0028A6D00029A4D0226823
:101F00000C3252E8000F20F4907042E80007002FD6
:101F1000F5D12068143050E8002F22F0010240E88B
:101F20000027002FF5D184F84230256320680C305B
:101F300050E8002F22F0100240E80023002BF5D1DA
:101F400066632046FFF708FFF8BDFFE705062BD5BF
:101F5000150629D594F841002128F5D1A068B0F5DF
:101F6000805F01D12069B0B1206A411C21622168E3
:101F700000784860E08C401E0004000CE084E3D14F
:101F80002068C16821F08001C1602068C16841F00B
:101F90004001C160D8E7206A0088C0F308004860AB
:101FA000206A801C2062E5E74006CDD55006CBD5DF
:101FB000CA68204622F04002CA6084F8413000F02E
:101FC00053F9C1E7932E000870B5040004D094F8CB
:101FD0004100002510B106E0012070BD84F840509A
:101FE000204600F023F8242084F841002068C168CE
:101FF00021F40051C160204601F088FB206801698E
:1020000021F4904101612068416921F02A01416178
:102010002068C16841F40051C1606564202084F8E3
:10202000410084F842006563002070BD30B585B082
:102030000024009401940294039400681849884293
:102040002CD11848C16941F48021C161C16901F4F2
:1020500080210491816941F0080181618069124DFC
:1020600000F0080004904FF480600090022001907E
:102070000320039069462846FEF714FFE814CDE9D3
:102080000004694628460294FEF70CFF0022114620
:102090002720FFF76DF82720FFF75CF805B030BD6B
:1020A0000048004000100240000C014090F842300F
:1020B000202B01D00220704721B11AB10023036305
:1020C00001F080BB012070472DE9F04100683249E2
:1020D00088425FD1314C00252146628830484978DA
:1020E000802A18D28154521C92B2628023784BB954
:1020F000022A3AD30378AA2B37D14378552B34D10F
:1021000001232370A38853B9032A08D383781B1DA6
:10211000A380802B03D965802570A58025E02378D6
:102120001BB3A18801B38A422BD38278C378861867
:10213000F778D6180023521E92B206E000EB030C8B
:102140005B1C9CF804C09BB266449A42F6D8F0B27D
:10215000B84203D1124801F071F802E011A001F079
:102160008DFB65802570A5800BE00A2901D00D2923
:1021700007D1618829B1084400F8015C00F0C2FE73
:102180006580BDE8F041054905480122491C8030C1
:10219000FFF78CBFBDE8F081004800404C000020F4
:1021A0009C0100204552524F523A20436865636BB0
:1021B00073756D206D69736D617463682028626941
:1021C0006E290D0A000000002DE9F843044690F83E
:1021D0004100984616460D46202802D00220BDE850
:1021E000F88385B17EB100206064212084F841002D
:1021F000FEF752FFA6848146E684A0682027B0F54A
:10220000805F02D003E00120E9E7206910B12E468B
:1022100000250EE000260CE08021204601F0EDFABA
:10222000A8B9C6B116F8010B21684860E08C401EC1
:10223000E084E08C4B464FF00002CDF8008000288F
:10224000EAD14FF04001204601F0D7FA40B184F8BE
:1022500041700320C3E735F8020BC0F30800E3E741
:1022600084F841700020BAE77047FEE72DE9F0419D
:1022700086B0002425480094019402940394816957
:1022800041F020018161816901F02001049181699F
:1022900041F004018161816901F0040104918169C7
:1022A00041F0080181618069194F00F00800049035
:1022B0000022FF213846FEF7EAFEDFF858804FF48F
:1022C0006046012231464046FEF7E1FEFF2001252F
:1022D000CDE900050220CDE9024069463846FEF707
:1022E000E1FD2803CDE90004694640460294FEF76B
:1022F000D9FD0320CDE90240CDE90065694640469D
:10230000FEF7D0FD06B0BDE8F081000000100240ED
:1023100000080140000C014010B596B000240F9455
:1023200010941194129413941C2168461494FDF790
:1023300010FF202107A8FDF70CFF35483349016045
:102340004721C0E9011444F61F61C0E9031480214C
:10235000C0E90541FFF71CFA08B1FEF71FFD4FF475
:1023600080500F900FA92A48FFF760FA08B1FEF7D6
:1023700015FD2748FFF774FC08B1FEF70FFD139415
:1023800013A923481494FFF7CFF908B1FEF706FD0F
:102390006020CDE900040294039404940594002283
:1023A00069461B480694FFF7F5FB08B1FEF7F6FCFB
:1023B000042269461648FFF7EDFB08B1FEF7EEFC74
:1023C000082269461248FFF7E5FB08B1FEF7E6FC74
:1023D0000C2269460E48FFF7DDFB08B1FEF7DEFC74
:1023E0000794089409944FF400500A94CDE90B40E7
:1023F00007A907480E94FFF76DF908B1FEF7CEFC68
:102400000348FFF789FB16B010BD0000002C014007
:102410007C00002010B58CB024216846FDF799FEA1
:102420000024164809944FF080410A94C0E9001432
:102430004FF6FF71C0E902418021046181610320F0
:10244000CDE9000401200621CDE902040491CDE983
:1024500005400794694609480894FFF755FA08B102
:10246000FEF79CFC099409A904480A94FFF75CF95B
:10247000002801D0FEF792FC0CB010BDC400002073
:1024800010B58CB024216846FDF763FE0024174880
:10249000099415490A94C0E900144FF6FF71C0E988
:1024A00002418021046181610320CDE90004012003
:1024B0000621CDE902040491CDE90540079469465F
:1024C0000A480894FFF720FA08B1FEF767FC099460
:1024D00009A906480A94FFF727F9002801D0FEF75A
:1024E0005DFC0CB010BD0000000400400C01002099
:1024F00010B58EB000240794089409940A940B94A4
:102500001C2168460C94FDF724FE2B4829490160E4
:102510004721C0E9011440F2E731C0E903148021EA
:102520008161FFF735F908B1FEF738FC4FF48050B0
:10253000079007A92048FFF779F908B1FEF72EFCAC
:102540001D48FFF78DFB08B1FEF728FC0B940BA983
:1025500019480C94FFF7E8F808B1FEF71FFC60205B
:10256000CDE9000402940022694613480494FFF761
:1025700011FB08B1FEF712FC042269460E48FFF772
:1025800009FB08B1FEF70AFC082269460A48FFF772
:1025900001FB08B1FEF702FC0C2269460648FFF772
:1025A000F9FA08B1FEF7FAFB0348FFF7B5FA0EB0E7
:1025B00010BD000000080040540100200C4810B578
:1025C0000A4901604FF4E1314160002181600C2231
:1025D000C160C0E904128161C161FFF7F5FC002808
:1025E00003D0BDE81040FEF7D9BB10BD0048004045
:1025F0001C0200204FF461728E280CD911467F38DE
:102600004843C11700EB5160C111914201DD1046F2
:1026100070470846704770280ED2C0F17F004FF413
:1026200061714843C11700EB5160C011904201DD58
:102630000248704740427047002070477CFCFFFF13
:102640002DE9F05F584C594D1E4617468946804685
:102650006FF0950B4FF0000A96280BDD0122114612
:102660002046FEF714FD002202212046FEF70FFD52
:10267000404618E0D8454FF000024FF001012046D7
:1026800009DAFEF704FD012202212046FEF7FFFCD5
:10269000C8F1000007E0FEF7FAFC00220221204604
:1026A000FEF7F5FC504629684863962F0CDD0122A1
:1026B00010212046FEF7EBFC002220212046FEF7E9
:1026C000E6FC2868876319E05F454FF000024FF091
:1026D0001001204608DAFEF7DAFC0122202120460C
:1026E000FEF7D5FC784207E0FEF7D1FC002220215E
:1026F0002046FEF7CCFC504629688863B9F1960F56
:102700000BDD012204212046FEF7C1FC0022082136
:102710002046FEF7BCFC484618E0D9454FF00002C1
:102720004FF00401204609DAFEF7B1FC012208212E
:102730002046FEF7ACFCC9F1000007E0FEF7A7FC5D
:10274000002208212046FEF7A2FC50462968C863F3
:10275000962E0DDD012240212046FEF798FC002236
:1027600080212046FEF793FC28680664BDE8F09FB0
:102770005E454FF000024FF04001204608DAFEF7B8
:1027800086FC012280212046FEF781FC704207E092
:10279000FEF77DFC002280212046FEF778FC5046A3
:1027A00029680864E2E700000008014054010020A5
:1027B000FEE7000070B5184C0025206845632068CE
:1027C00085632068C5632068056429462046FFF7B5
:1027D00075FA04212046FFF771FA08212046FFF719
:1027E0006DFA0C212046FFF769FA3C210B48FFF7F0
:1027F0004BF93C210A48FFF747F9FEF71BFA20681E
:102800004563206885632068C56320680564BDE86A
:102810007040FEF7AFBA000054010020C400002051
:102820000C010020FEE7000010B5FEF773FA044C1F
:102830006068FDF7CDFE0349FDF767FD606110BDDF
:1028400000000020C26A044110B5FEF77BFA044C78
:10285000A068FDF7BDFE0349FDF757FDA06110BD5F
:1028600000000020C26A044110B5FFF7DDFF0446F6
:10287000FFF7EAFF01462046FDF7BDFCBDE810402A
:102880004FF0FF31FDF77FBD70B504462348037854
:102890002BB97F2C01D17F2909D001230370530765
:1028A00040F2262007D5BDE87040FEF7FDB9BDE82F
:1028B0007040FEF7BFB9920703D5BDE87040FEF740
:1028C00005BA0846FFF796FE43422046FFF792FE00
:1028D00001465818591A00B24FF4617509B26C429A
:1028E0000A460346A84201DD284602E0A04200DA7B
:1028F0002046A94202DD29462A4603E0A14201DA28
:1029000021462246AB4201DD2B4602E0A34200DA1B
:102910002346BDE87040FFF793BE00000000002092
:1029200070B50D460646FEF7B7FB01462C484268D7
:102930008A1A142A53D34160294CF00607D4207810
:10294000801CB42803D8C1B2002000F0D1F8700672
:1029500007D42078022804D3801EC1B2002000F0E2
:10296000C7F8300607D46078801CB42803D8C1B2F9
:10297000012000F0BDF8B00607D46078022804D327
:10298000801EC1B2012000F0B3F8E80607D4A07899
:10299000801CB42803D8C1B2022000F0A9F8680650
:1029A00007D4A078022804D3801EC1B2022000F010
:1029B0009FF8280607D4E078801CB42803D8C1B259
:1029C000032000F095F8A80609D4E078022806D381
:1029D000BDE87040801EC1B2032000F089B870BD10
:1029E000300000202DE9FC41064600208DF804004F
:1029F00001208DF8000047031C4CC5034FF480589C
:102A00002CE000BF9DF80000304201D0012200E020
:102A1000002239462046FEF73AFB0022294620468E
:102A2000FEF735FB102001F0B7FB41462046FEF7CC
:102A300029FB30B19DF804009DF8001008438DF883
:102A40000400012229462046FEF721FB102001F058
:102A5000A3FB9DF8000040008DF800009DF80000E9
:102A60000028CFD19DF80400BDE8FC81000C014096
:102A70007047704710B500210A48FFF71FF904217D
:102A80000848FFF71BF908210648FFF717F90C2142
:102A90000448FFF713F900F01FF8BDE8104002A04A
:102AA00000F0ECBE7C0000205B536572766F5D2009
:102AB000496E697469616C697A65642C203420738D
:102AC0006572766F73206174203930206465677297
:102AD0006565730D0A00000010B500245A212046D8
:102AE00000F006F8641CE4B2042CF7D310BD00001B
:102AF00010B50B460446B42900D9B4234FF4FA604C
:102B00005843B421B0FBF1F000F5FA7081B22046D1
:102B100000F006F80148035510BD00003000002009
:102B2000084A126838B1012807D0022807D00328C4
:102B300000D1116470475163704791637047D1634E
:102B4000704700007C0000200148C0697047000009
:102B5000000000200148006A7047000000000020CB
:102B60002DE9F05FFEF798FA1D4C0546E06A2F1A32
:102B700034D0FEF7CFF88046FEF7E4F80646616AE7
:102B8000A06AA8EB0101A6EB00090846FDF720FDAD
:102B9000DFF850B05946FDF7B8FB82464846FDF7CE
:102BA00017FD5946FDF7B1FB81463846FDF719FD83
:102BB0000D4F834639465046FDF775FB5946FDF7E4
:102BC000A4FBE061DA4639464846FDF76CFB514606
:102BD000FDF79BFBC4E90808C4E90A65BDE8F09F5E
:102BE00000000020C26A044100007A44FEF75ABA8D
:102BF00030B58FB028216846FDF7ABFA14210AA83A
:102C0000FDF7A7FA01210804CDE900100024029481
:102C100002250491CDE907504FF4E0100990684671
:102C2000FEF7B4FB08B172B6FEE70F20CDE90A0546
:102C30004FF48060CDE90C4002210AA80E94FEF703
:102C4000C9FA002801D072B6FEE70FB030BD704758
:102C5000F0B50268194B1A4C1A4D4FF08047984254
:102C600005D0B84203D0A04201D0A84203D122F03F
:102C700070064A683243984205D0B84203D0A04259
:102C800001D0A84203D122F44074CA6822434C699F
:102C900022F08002224302608A68C2620A6882626D
:102CA000984201D109690163012141610169C907A4
:102CB00003D0016921F001010161F0BD002C014048
:102CC000000400400008004010B501F01F0301217E
:102CD000046A99408C430462016A9A40114301627C
:102CE00010BD10B5846842EA032224F47F440A43ED
:102CF0002243826010BD826822F070020A4342F0D3
:102D0000070181607047000030B5036A026A22F053
:102D1000010202624268846924F073050C682C4346
:102D200023F002058B682B430A4DA8420BD123F0F8
:102D30000805CB6822F440722B434D6923F004034D
:102D400015438A692A43426084614968416303628A
:102D500030BD0000002C014030B5026A036A23F048
:102D600010030362436884690D6824F4E64444EA6E
:102D700005248D6822F0200242EA05120B4DA8427C
:102D80000ED1CD6822F0800242EA05124D6923F48B
:102D9000406343EA85038D6922F0400243EA8503DC
:102DA0004360846149688163026230BD002C014048
:102DB00030B5036A026A22F4807202624268C46912
:102DC00023F4007324F073050C682C438D6843EAE8
:102DD00005230C4DA8420ED1CD6823F4006343EACD
:102DE00005234D6922F4405242EA05128D6923F40D
:102DF000806342EA05124260C4614968C1630362AC
:102E000030BD0000002C014030B5046A026A22F493
:102E1000805202624268C3690D6823F4E64343EAC4
:102E200005238D6824F4005444EA0534064DA84275
:102E300004D14D6922F4804242EA85124260C361A6
:102E400049680164046230BD002C014010B5036A7A
:102E5000046A24F001040462846924F0F00444EA62
:102E6000021423F00A020A438461026210BD10B505
:102E7000036A046A24F010040462846923F0A00346
:102E800024F4704444EA023243EA0111826101628F
:102E900010BD10B5406A0021C185C184FEF75DFFF9
:102EA00010BD01680C3151E8002F22F4907241E806
:102EB0000023002BF5D10168143151E8002F22F0D6
:102EC000010241E80023002BF5D1016B012909D152
:102ED00001680C3151E8002F22F0100241E8002374
:102EE000002BF5D1202180F84210002101637047AA
:102EF000012202490248FFF7D9B800004D00002026
:102F00001C02002030B5A1B052496846FDF73AF9DD
:102F100051A16846FDF740F918B150A1FDF724F919
:102F200008B14FA079E056A10020FDF735F9040063
:102F30001DD054A1FDF718F9D8B154A12046FDF7D2
:102F400013F900285FD053A12046FDF70DF90028A2
:102F50005DD052A12046FDF707F900285AD052A1B2
:102F60002046FDF701F900285AD051A055E057A09E
:102F700053E043A10020FDF70FF9054640A10020D2
:102F8000FDF70AF93DB130B1FDF728F904B2962CEE
:102F900003DA962406E054A03FE04FF461708442C7
:102FA00000DD044658A12846FDF7DEF880B157A1A0
:102FB0002846FDF7D9F888B155A12846FDF7D4F881
:102FC00090B154A12846FDF7CFF898B152A024E063
:102FD0002046FDF7C2FD214656A010E02046FDF731
:102FE000ACFD21465AA00AE02046FDF75DFE2146D1
:102FF0005EA004E02046FDF769FE214662A000F0D5
:103000003DFC21B030BDFDF715FE66A005E000F0E7
:103010000DFBF6E7FDF7AEFE67A000F02FFCF0E732
:1030200017A10020FDF7B8F848B1FDF7D7F810F068
:10303000FF01664805D0012906D065A0EDE76EA026
:10304000EBE7017073A201E0017073A274A000F0BD
:1030500015FCD6E79C0100203A000000434D4400D7
:103060004552524F523A20496E76616C6964206332
:103070006F6D6D616E6420666F726D61740D0A0014
:103080002C0000004D4F56450000000053544F5097
:10309000000000005354415455530000524553451D
:1030A000545F454E430000004D4F44450000000072
:1030B0004552524F523A20556E6B6E6F776E2063B9
:1030C0006F6D6D616E640D0A000000004552524F35
:1030D000523A204E6F20636F6D6D616E642074797B
:1030E00070650D0A000000004552524F523A2049C7
:1030F0006E76616C6964204D4F564520636F6D6D2F
:10310000616E640D0A0000004600000042000000ED
:103110004C000000520000004552524F523A2049E4
:103120006E76616C696420646972656374696F6E40
:103130000D0A00004F4B3A204D6F76696E6720668E
:103140006F72776172642061742025640D0A00003B
:103150004F4B3A204D6F76696E67206261636B77E3
:103160006172642061742025640D0A004F4B3A207F
:103170005475726E696E67206C6566742061742088
:1031800025640D0A000000004F4B3A205475726E02
:10319000696E672072696768742061742025640D08
:1031A0000A0000004F4B3A204361722073746F7025
:1031B0007065640D0A0000004F4B3A20456E636F46
:1031C0006465722072657365740D0A003800002012
:1031D0004552524F523A20496E76616C6964206DB7
:1031E0006F64652028303D5053322C20313D5541CD
:1031F0005254290D0A0000004552524F523A204EB7
:103200006F206D6F646520737065636966696564BE
:103210000D0A000050533200554152540000000086
:103220004F4B3A204D6F64652073657420746F2096
:10323000256420282573290D0A0000002DE9F0419E
:103240000246052901D258A0A8E01078AA2802D188
:103250005078552801D05BA0A0E09078031D9942DA
:1032600001D05DA09AE0D178131D02444418D678AD
:103270000022451EADB203E09F5C521C3C4492B25A
:103280009542F9D8E2B2B24201D05AA086E00629AE
:1032900078D2DFE801F087035A62737C032801D0FB
:1032A00059A07BE0B3F901401878962C01DA9624F6
:1032B00004E04FF461718C4200DD0C460A2842D2D2
:1032C000DFE800F0050B11171D23292F353B2046A1
:1032D000FDF743FC214652A04CE02046FDF72DFCB3
:1032E000214652A046E02046FDF7DEFC214652A0D2
:1032F00040E02046FDF7EAFC214652A03AE0204695
:10330000FDF776FC214652A034E02046FDF782FC12
:10331000214652A02EE02046FDF74DFC214652A04A
:1033200028E02046FDF756FC214652A022E0204628
:10333000FDF721FC214652A01CE02046FDF72BFCA6
:10334000214652A016E054A028E0012801D056A042
:1033500024E0FDF76FFC5AA020E0022801D05BA01A
:103360001CE0197819B1012901D05EA016E062486D
:10337000017062A0BDE8F04100F080BA012802D0DF
:1033800062A00BE00EE0BDE8F04100F079B9012841
:1033900001D064A002E0FDF7EDFC68A0BDE8F041BB
:1033A00000F06CBA69A0E5E74552524F523A204608
:1033B00072616D6520746F6F2073686F72740D0A8F
:1033C000000000004552524F523A2042616420688A
:1033D00065616465720D0A004552524F523A204CA5
:1033E000656E677468206D69736D617463680D0A3A
:1033F000000000004552524F523A20436865636B0B
:1034000073756D0D0A0000004552524F523A204D1F
:103410004F5645207061796C6F61640D0A000000A1
:103420004F4B3A20462025640D0A00004F4B3A20AE
:10343000422025640D0A00004F4B3A20544C2025B1
:10344000640D0A004F4B3A2054522025640D0A00A7
:103450004F4B3A204D4C2025640D0A004F4B3A202B
:103460004D522025640D0A004F4B3A20464C202532
:10347000640D0A004F4B3A2046522025640D0A0085
:103480004F4B3A20424C2025640D0A004F4B3A2006
:1034900042522025640D0A004552524F523A2044B0
:1034A00049520D0A000000004552524F523A205333
:1034B000544F50207061796C6F61640D0A000000F8
:1034C0004F4B3A2053544F500D0A00004552524F73
:1034D000523A204D4F4445207061796C6F61640D04
:1034E0000A0000004552524F523A204D4F444520A9
:1034F00076616C0D0A000000380000204F4B3A2026
:103500004D4F44452025640D0A0000004552524F9E
:10351000523A20535441545553207061796C6F6175
:10352000640D0A004552524F523A205245534554B9
:10353000207061796C6F61640D0A00004F4B3A2076
:1035400052455345545F454E430D0A004552524F74
:10355000523A20556E6B6E6F776E20434D4420308B
:1035600078253032580D0A0008B590F8421022290B
:1035700001D0022008BD82684FF480539A4201D1E5
:10358000016921B1816A9A421BD04AB10AE00268FE
:10359000816A5268C2F308020A80816A891C08E0C5
:1035A000026972B10268526802F07F020A70816A91
:1035B000491C8162C18D491E0904090CC18503D0D3
:1035C0001BE002685268F1E70168CA6822F0200235
:1035D000CA600168CA6822F48072CA6001684A69D8
:1035E00022F001024A61202180F84210002141634B
:1035F000026B012A03D0FEF767FD002008BD0163BE
:1036000001680C3151E8002F22F0100241E800233C
:10361000002BF5D101680A68D20602D50A6849680C
:103620000091818DFEF798FBE7E7000010B5FDF7EC
:1036300071FB0446FDF786FB0246044821460378E9
:10364000BDE8104002A000F019B9000038000020C9
:103650005354415455533A204C656674456E633D4E
:10366000256C642C205269676874456E633D256C37
:10367000642C204D6F64653D25640D0A0000000038
:103680007FB5FDF747FB0446FDF75CFB1D490925A7
:103690006B460A78AA218DF8001055218DF801108B
:1036A0000A218DF8021084218DF803108DF8044052
:1036B000210A8DF80510210C8DF80610210E8DF8C9
:1036C00007108DF80800010A8DF80910010C8DF81B
:1036D0000A10000E8DF80C208DF80B000D228E21A3
:1036E00000201C18401C2479C0B22144A842F8D301
:1036F00099544FF6FF7369460348521CFEF764FD68
:103700007FBD0000380000201C02002070B5044678
:1037100000680169E26821F44051114301612169A7
:10372000A0680843616908432168CA6841F20C63D4
:103730009A430243CA6020684169A26921F440713A
:10374000114341611E492068884202D1FDF7E8FD1E
:1037500001E0FDF7D5FD00EBC00101EB0012606850
:1037600064218000B2FBF0F3B3FBF1F36FF01806B5
:103770007343B2FBF0F5B2FBF0F605EB83053223A1
:1037800003EB0515B5FBF1F5B6FBF1F605F0F00519
:1037900005EB0615B2FBF0F6B2FBF0F0B0FBF1F072
:1037A0006FF01802504306EB800003EB0010B0FBF3
:1037B000F1F0216800F00F002844886070BD00001F
:1037C0000038014081628285C28500214164222146
:1037D00080F84210016921B10168CA6842F4807220
:1037E000CA6001684A6942F001024A610068C16822
:1037F00041F02001C160002070472DE9F843984650
:1038000017460D460446089E24E0701C22D0FDF7A2
:1038100043FCA0EB0800B0421AD8CEB12068C168C2
:10382000490717D5802D15D0402D13D00168C94305
:1038300009070FD401680025406800902046FFF773
:1038400030FB0820606484F840500120BDE8F88314
:103850000320FBE72068006835EA000004D0002060
:10386000B842D2D00020F1E70120F9E70148FEF785
:1038700075BA00001C020020FEE700000FB4054BE3
:1038800010B503A9044A029800F0EEF810BC5DF8E8
:1038900014FB0000C1410008680000200907090E60
:1038A000002804DB00F1E02080F80014704700F0ED
:1038B0000F0000F1E02080F8141D704700487047A9
:1038C0006C00002002E008C8121F08C1002AFAD1CB
:1038D00070477047002001E001C1121F002AFBD190
:1038E000704700002DE9FF5F82B00021DDE9043060
:1038F000020DDDF840B0034318D044F61050A2F298
:10390000FF3242431514119801281FD0A5EB0B007C
:10391000401C5FEA000A4FF000064E4FDFF8389176
:10392000B046504615D5CAF1000413E011980124A1
:103930004AA3012801D16FEA0B010298119AC0E94C
:103940000031C0E9024206B0BDE8F09FCBF10000B3
:10395000DFE704460021404A491842EB0450CDE914
:10396000001012E0E00707D032463B464046494689
:10397000FCF7BCFD8046894632463B461046194658
:10398000FCF7B4FD06460F466410002CEAD1DDE9D1
:103990000401DDE90023BAF1000F06DAFCF7A6FD09
:1039A00042464B46FCF7A2FD05E0FCF766FF4246A7
:1039B0004B46FCF762FF04460E460022284BFCF7FC
:1039C000E3FF03D84FF0FF30014607E00022254B0C
:1039D00020463146FCF7E3FCFCF7BEFF102409E06B
:1039E000002C0ADB0A220023FCF729FE039B30325D
:1039F0001A55641E50EA0102F2D1641C039AC4F104
:103A000011031444119A012A03D0012208430DD155
:103A10000AE0084304D000204FF0110B119072E728
:103A2000A3EB0B056D1E0DE05B4504DD4FF00002BE
:103A300005F1010504E003DA4FF00002A5F10105EC
:103A4000002AECD002981199C0E90231C0E9004582
:103A500079E70000000014400000F03F3000000053
:103A60000000F0430000E03F2DE9FF4F95B09B467A
:103A70008946064600250FE2252877D100242746EF
:103A8000F84A0121059400E0044316F8013F203B69
:103A900001FA03F01042F7D130782A2811D06FF0E4
:103AA0002F033078A0F13002092A16D8059A44F085
:103AB000020402EB820203EB42021044761C0590E2
:103AC000EFE759F8042B0592002A03DA504244F438
:103AD0000054059044F00204761C30782E2816D14C
:103AE00016F8010F44F004042A280DD06FF02F02BD
:103AF0003078A0F13003092B09D807EB870302EBDC
:103B00004303C718761CF3E759F8047B761C30781A
:103B10006C280FD006DC4C2817D068280DD06A28F6
:103B200014D104E0742810D07A280FD10DE044F4A9
:103B300000140AE044F4801401E044F44014727864
:103B4000824202D104F58014761C761C30786628F7
:103B50000BD013DC582877D009DC002875D0452815
:103B6000F6D04628F4D047281AD19DE118E0632802
:103B700035D0642879D0652812D195E1702873D0AA
:103B800008DC6728F1D069286FD06E280DD06F2827
:103B900006D1B5E073282CD0752875D0782874D05C
:103BA0005A46179990476D1C75E1C4F302500228DC
:103BB00009D003280DD0D9F8001004280DD00D60CD
:103BC00009F1040967E1D9F80010EA17C1E90052C8
:103BD000F6E7D9F800100D80F2E70D70F0E719F85C
:103BE000041B8DF8001000208DF80100EA4601202A
:103BF00003E059F804AB4FF0FF3061074FF00001CC
:103C000002D40DE008F101018846B9420FDA80457F
:103C1000F8DB1AF808100029F4D108E008F10101D6
:103C200088468142FADB1AF808100029F6D1059877
:103C30005B46A0EB080721463846179A00F094FA35
:103C4000284400EB080507E04DE029E10DE01AF8F3
:103C5000010B5A4617999047B8F10108F7D25B4615
:103C600021463846179A13E142E00A220092C4F333
:103C700002524FF0000A022A08D059F804CB032A56
:103C80004FEAEC710AD00DE029E02AE009F10701C2
:103C900021F00702F2E802C1914609E00FFA8CFC1C
:103CA0004FEAEC71042A03D14FFA8CFC4FEAEC7115
:103CB000002907DA0A460021DCF1000C61EB020161
:103CC0002D2202E0220504D52B228DF804200122AA
:103CD00003E0E20701D02022F7E7904659E00A21ED
:103CE00002E010220DE010214FF0000A00910BE0DD
:103CF00010224FF0000A44F004040827009203E069
:103D000008224FF0000A0092C4F30252022A05D0A2
:103D100059F804CB0021032A08D009E009F1070172
:103D200021F00702F2E802C1914605E01FFA8CFC7F
:103D3000042A01D10CF0FF0C4FF00008220728D50F
:103D4000702806D0009B83F0100353EA0A0305D0C5
:103D50000EE040228DF80420012208E05CEA010216
:103D600006D030228DF804208DF8050002229046FE
:103D7000009B83F0080353EA0A030AD15CEA0102BC
:103D800001D1620705D530228DF804204FF00108DB
:103D90007F1E582804D034A003900EA802900DE096
:103DA00036A0F9E753466046009AFCF748FC844683
:103DB0000398825C0298401E029002705CEA010047
:103DC000F0D1029806A9081A00F1200A600702D56E
:103DD00024F4803400E00127574502DDA7EB0A00F8
:103DE00000E0002000EB0A01009005984144401AD1
:103DF0000590E00306D45B462146179A059800F02B
:103E0000B3F90544002706E001A85A46C05D17999A
:103E100090476D1C7F1C4745F6DBE0030CD55B46E5
:103E20002146179A059800F09FF9054404E03020D8
:103E30005A46179990476D1C0099481E009000291A
:103E4000F5DC08E0029802995A460078491C029174
:103E5000179990476D1CBAF10001AAF1010AF1DC33
:103E600065E100000928010030313233343536373E
:103E700038396162636465660000000030313233B6
:103E80003435363738394142434445460000000056
:103E900000F058F90544761C307800287FF4ECAD2A
:103EA00019B02846BDE8F08F620700D4062709F153
:103EB000070222F0070CFCE80223E14603F0004869
:103EC0005FEA080C02D00FF2702C0DE05FEA045C90
:103ED00002D50FF2682C07E05FEAC47C02D00FF233
:103EE000602C01E0AFF2700C4FF0FF3823F000437C
:103EF000CDF850C065280CD006DC452809D04628EE
:103F00001DD047283DD13DE0662818D067287ED1D6
:103F100038E00021112F01DB112000E0781CCDE9F1
:103F2000000106A90EA8FFF7DDFCDDE90F010E9ADE
:103F300003910021009207F1010A04914DE04FF036
:103F400000400097CDE9011006A90EA8FFF7CAFCB2
:103F5000DDE90F0203920E9B11990022DDF80CA0FF
:103F60000093049211B9791C00EB010AB7EB0A0027
:103F700004D4C0F1FF3007F1010A0490AAEB070056
:103F8000019044E0012F00DA01270021112F01DD0B
:103F9000112000E03846CDE9000106A90EA8FFF780
:103FA000A1FCDDE90F010E9A03910021049100921A
:103FB000BA4621070CD40399514500DA8A46BAF172
:103FC000010F05DD009AAAF10101515C302908D0EA
:103FD000B84202DA10F1040F06DA0121CDE901102E
:103FE00015E0AAF10101E9E7002805DC0499014484
:103FF0000491AAEB000102E0411C514500DD8A4614
:104000000499401A401C01904FF000400290200794
:1040100004D40198504501DBCDF8048000208DF8D0
:104020004F0002980DF14F07B0F1004F25D02B2023
:104030000E9002984FF0020800280CDA40420290DD
:104040002D200E9007E00A210298FCF7E2FA3031A9
:10405000029007F8011DB8F10001A8F10108F2DC97
:1040600002980028EFD1791E0E980870307800F081
:10407000200040F0450007F8020D12A8C01B00F117
:1040800007081498007800B1012000EB0A0101989C
:1040900001EBE07105984144401A401E0590E00391
:1040A00006D45B462146179A059800F05DF8054452
:1040B0001498007818B15A46179990476D1CE00380
:1040C00024D55B462146179A059800F04DF8054423
:1040D0001CE00498002807DBDDE90301884203DDCA
:1040E0000098405C179901E0179930205A46904794
:1040F000049805F10105401C04900198401E0190B0
:1041000004D12E205A46179990476D1CBAF1000130
:10411000AAF1010ADDDC05E017F8010B5A461799F0
:1041200090476D1CB8F10001A8F10108F4DC5B4672
:104130002146179A0598ABE62D0000002B000000E1
:10414000200000002DE9F041044600251E461746D8
:10415000880404D405E039462020B0476D1C641E55
:10416000F9D52846BDE8F0812DE9F0410446002547
:104170001E469046C80301D5302700E0202788045A
:1041800004D505E041463846B0476D1C641EF9D59C
:104190002846BDE8F08100000649074A0968B1FBDE
:1041A000F2F141430548426843689B1A8B42FBD3B6
:1041B000704700006000002040420F00001000E047
:1041C00013B54FF6FF73012269460248FDF7FCFF65
:1041D00000981CBD1C0200208AB0FCF76BFFFEF7A4
:1041E00007FDFEF743F8FEF797F8FEF713F9FEF721
:1041F00047F9FEF7E3F9FEF77BF9FCF751FCFEF710
:10420000D9FAFEF737FCFEF773FE6420FCF738FEA0
:10421000FCF710FD3220FCF733FE71A0FFF72EFBF8
:1042200079A0FFF72BFB82A0FFF728FB894C2078B1
:10423000002875D088A18AA0FFF720FB8BA0FFF78C
:104240001DFB91A0FFF71AFB94A0FFF717FBDFF807
:104250000492002109F10C0989F8001089F8011075
:1042600089F802107F2189F8051089F8061089F86D
:10427000031089F80410FCF7DDFC00208046074697
:1042800006460890FCF708FF0446C01B642802D3CA
:104290002746FEF765FCA01BB0F57A7F2ED3264695
:1042A000FEF7C2FA0590FEF7CFFA0090FEF7DCFAAF
:1042B0000190FEF749FC8246FEF74CFCFCF796F9AC
:1042C00005468B465046FCF791F9824604910198C9
:1042D000FCF78CF9CDE902010098FCF787F9CDE9EC
:1042E00000010598FCF782F90B460499CDE9065BBD
:1042F000CDE904A102466C48FFF7C0FA554DA86805
:10430000201A142823D305F10C00AC60FCF7D4FB71
:1043100099F80000732805D0412803D017E0FFE783
:1043200062A188E76978002939D088420FD069688E
:10433000611AB1F5967F0AD368706C60287890F0A6
:10434000010129702DD044A259A0FFF797FA2878CF
:10435000002897D1A4EB0800142893D33D48A04629
:104360000C30FCF7A9FB99F800004D4673281AD0D1
:10437000412818D0FCF75EFC00206870A8707F20F0
:104380006871A871E87028710898201AB0F5FA6F62
:10439000E3D30894297852A0FFF770FA72E76870A7
:1043A000D5E742A2D0E76A78A9796879FEF76CFA76
:1043B000A9786878FEF7B4FA0898201AB0F5FA7F61
:1043C000ECD308942879AB786A7829788DE80F00C7
:1043D000EB78AA7969794E48FFF750FA52E7000066
:1043E0000D0A3D3D3D3D3D3D3D3D3D3D3D3D3D3D60
:1043F0003D3D3D3D3D3D3D3D3D3D3D3D3D3D3D3DED
:104400003D3D3D0D0A0000002020505332204879E8
:104410006272696420436172202B20536572766F4B
:1044200020436F6E74726F6C20200D0A0000000034
:104430003D3D3D3D3D3D3D3D3D3D3D3D3D3D3D3DAC
:104440003D3D3D3D3D3D3D3D3D3D3D3D3D3D3D3D9C
:104450003D0D0A0038000020554152540000000074
:104460004D6F64653A2025730D0A00004D6F746F1F
:10447000723A203478204D6563616E756D205768FF
:1044800065656C730D0A0000536572766F3A2034CF
:1044900078204D47393936520D0A00005265616463
:1044A00079210D0A0D0A0000104600085053320011
:1044B0004F4B3A204D6F646520746F67676C65647D
:1044C00020746F20256420282573292062792050CC
:1044D0005332204D4F4445206B65790D0A00000092
:1044E0005B5053325D204E6F20636F6E74726F6C41
:1044F0006C657220646574656374656420284D6F13
:1045000064653A307825303258290D0A00000000E1
:10451000CC4500080142000000000000000102023A
:10452000030405060708090A0B0C0D0E0F101000F6
:104530000000000000000001020304060708090053
:104540000000000102030400404040404040404061
:104550004041414141414040404040404040404056
:104560004040404040404040050202020202020238
:10457000020202020202020220202020202020202B
:10458000202002020202020202909090909090106D
:10459000101010101010101010101010101010101B
:1045A0001010100202020202028888888888880897
:1045B000080808080808080808080808080808087B
:1045C0000808080202020240484500085B505332C6
:1045D0005D204C4A282533642C2533642920524A17
:1045E000282533642C25336429204D6F64653A30C7
:1045F00078253032582042746E313A307825303286
:10460000582042746E323A3078253032580D0A0004
:104610005B4F646F6D657465725D204C3A252E3179
:10462000666D6D20523A252E31666D6D20546F7483
:10463000616C3A252E31666D6D207C205370656566
:1046400064204C3A252E31666D6D2F7320523A2529
:104650002E31666D6D2F730D0A0000007C46000838
:104660000000002070000000C4380008EC4600087C
:1046700070000020F8050000D43800080000000099
:10468000000000000000000000000000000000002A
:10469000000000000000000000000000000000001A
:1046A0000000000000000000000000005A5A5A5AA2
:1046B00000000000000000000000000000000000FA
:1046C00000000000000000000000000000000000EA
:1046D00001000000100000000000000000127A003D
:0C46E000000000000000000000000000CE
:04000005080000ED02
:00000001FF
