:020000040800F2
:10000000D0090020890100080D230008BD1D00084B
:10001000D5210008F502000895290008000000001D
:100020000000000000000000000000001123000894
:100030006B030008000000000F2300084D23000898
:10004000A3010008A3010008A3010008A301000800
:10005000A3010008A3010008A3010008A3010008F0
:10006000A3010008A3010008A3010008A3010008E0
:10007000A3010008A3010008110300081D030008E4
:100080002903000835030008A3010008A3010008A4
:10009000A3010008A3010008A3010008A3010008B0
:1000A000A3010008A3010008A3010008A3010008A0
:1000B000B1230008A3010008BD230008A301000824
:1000C000A3010008A3010008A3010008A301000880
:1000D000A30100087D29000889290008A301000860
:1000E000A3010008A3010008A301000800F002F822
:1000F00000F03AF80AA090E8000C82448344AAF188
:100100000107DA4501D100F02FF8AFF2090EBAE885
:100110000F0013F0010F18BFFB1A43F0010318473B
:10012000242F0000442F0000103A24BF78C878C163
:10013000FAD8520724BF30C830C144BF04680C60ED
:10014000704700000023002400250026103A28BF35
:1001500078C1FBD8520728BF30C148BF0B60704739
:100160001FB51FBD10B510BD00F058F81146FFF7C0
:10017000F7FF02F021FC00F076F803B4FFF7F2FF7E
:1001800003BC00F07DF8000009488047094800479B
:10019000FEE7FEE7FEE7FEE7FEE7FEE7FEE7FEE737
:1001A000FEE7FEE704480549054A064B7047000094
:1001B000AF230008ED000008D0030020D009002084
:1001C000D0050020D00500204FF0000200B51346F6
:1001D00094469646203922BFA0E80C50A0E80C5067
:1001E000B1F12001BFF4F7AF090728BFA0E80C5018
:1001F00048BF0CC05DF804EB890028BF40F8042B11
:1002000008BF704748BF20F8022B11F0804F18BF7D
:1002100000F8012B7047704770477047754600F033
:100220002BF8AE4605006946534620F00700854688
:1002300018B020B5FFF7B6FFBDE820404FF000062C
:100240004FF000074FF000084FF0000B21F00701BE
:10025000AC46ACE8C009ACE8C009ACE8C009ACE801
:10026000C0098D46704710B50446AFF300802046A4
:10027000BDE81040FFF781BF004870476C030020C5
:1002800001491820ABBEFEE72600020070470000BF
:1002900070B5164C01682160416861600189218157
:1002A000807AA07294F9040002F05EFD104E31468F
:1002B00002F078FC04F11805286094F9050002F0BA
:1002C00053FD314602F06EFC686094F9060002F0BE
:1002D0004BFD314602F066FCA86094F9070002F07D
:1002E00043FD314602F05EFCE86070BD340300203F
:1002F0000000C842FEE7034610B50020024604E0B5
:100300009C5C521C2044C0B292B28A42F8D310BD09
:10031000014800F0D9B800005C020020014800F05C
:10032000D3B8000018020020014800F0CDB800004A
:10033000A0020020014800F0C7B80000E40200203D
:1003400030B590F840500124AC40C56B6C60046837
:1003500063604368102B036803D099600068C26033
:1003600030BD9A600068C16030BD704772B6FEE76C
:1003700070B504460D46084602F00EFD06462146BD
:10038000084602F009FD314602F0AAFBB0F1765FA3
:1003900001DC002070BD0B490B48B5F5000F09DBEF
:1003A0008C4203D8844201DA012070BD844207DB0D
:1003B000042070BD8C42F9D88442F7DA022070BD67
:1003C000032070BDF4FD34BFF4FD343F044988427E
:1003D00001DB0520704703498842FBD9062070479E
:1003E0009A99993E9A9999BE10B590F821100022D9
:1003F000022905D00421816380F82020012010BD4E
:1004000001680B6823F00E030B6001680B6823F092
:1004100001030B6090F84030C46B012101FA03F333
:10042000636080F8211080F82020104610BD000085
:1004300010B590F821100024022903D00421816313
:1004400001243DE001680A6822F00E020A6001689A
:100450000A6822F001020A601A4A0168914201D139
:10046000012121E0174A1432914201D110211BE0F1
:10047000144A2832914201D1891515E0114A3C32C3
:10048000914201D189140FE00E4A5032914202D1BB
:100490004FF4803108E00B4A6432914202D14FF4AC
:1004A000801101E04FF08071064A083A5160012145
:1004B00080F82110002180F82010416B01B188479D
:1004C000204610BD080002402DE9F05FC16B0C68AA
:1004D00001680B68D0F840C0042202FA0CF2494DC2
:1004E000DFF824A1494E4A4FDFF828B1DFF828E1B0
:1004F00022422CD05A072AD50A68920603D40A68E9
:1005000022F004020A600168A94201D1042219E024
:10051000514501D1402215E0B14202D14FF4806231
:1005200010E0B94202D14FF480420BE0594502D1AC
:100530004FF4802206E0714502D14FF4800201E0C1
:100540004FF080622F4908394A60C16A3BE04FF0A2
:10055000020808FA0CF818EA040F4FF000094FF0EF
:10056000010235D05FEA837832D50B689B0605D44B
:100570000B6823F00A030B6080F821200168A94270
:1005800001D1022219E0514501D1202215E0B142EA
:1005900002D14FF4007210E0B94202D14FF4005280
:1005A0000BE0594502D14FF4003206E0714502D10B
:1005B0004FF4001201E04FF00072124908394A600E
:1005C00080F82090816A00291AD0BDE8F05F0847C2
:1005D000082505FA0CF5254212D01B0710D50B682B
:1005E00023F00E030B6090F84010C36B02FA01F188
:1005F0005960826380F8212080F82090016BE2E747
:10060000BDE8F09F080002401C000240300002409C
:1006100044000240580002406C00024030B528B34C
:1006200008C8134914221944B1FBF2F18900C163CF
:1006300010498163022141771A6843F6F0718A43B9
:10064000D0E900142143D0E902452C432143046939
:1006500021434469214384692143114319600021E6
:100660004163012242770177084630BD012030BD49
:10067000F8FFFDBF0000024070B5044690F820006E
:10068000002501280CD0012084F8200094F8216076
:100690000020012E06D084F820000225284670BDD7
:1006A000022070BD022684F82160A06320680668DD
:1006B00026F0010606602046FFF742FEE06A0028A9
:1006C0002068016802D041F00E0106E021F004012B
:1006D00001602068016841F00A010160206801683A
:1006E00041F001010160D9E72DE9F84FDFF8B89139
:1006F0000024A9F1040B23460F2709F1040AABF1EA
:10070000040EC9E00125A5402A40AA427DD1674ECA
:10071000D1F804C0ACEB0608B44532D014DCBCF10F
:10072000030F3AD009DCBCF1000F2AD0BCF1010F55
:100730001CD0BCF1020F31D11DE0BCF1110F17D05C
:10074000BCF1120F2AD119E0B8F5881F19D006DCC8
:10075000B8F5803F15D0B8F5801F1FD111E0B8F56E
:10076000001F0ED0B8F5041F18D10AE0CB6815E0C1
:10077000CB681B1D12E0CB6808330FE0CB680C334D
:100780000CE08B682BB1012B4FF0080303D04561BF
:1007900004E0042302E0056100E00023FF2A01D801
:1007A000064601E000F104064FEA840501D9A5F1EF
:1007B0002005D6F8008007FA05FC28EA0C0803FAA1
:1007C00005F548EA0508C6F800804D68ED0062D5D9
:1007D000374DAE6946F00106AE61AD6924F00306FF
:1007E00005F001050095334D06EB050CDCF80850CB
:1007F000A607360F07FA06F825EA0805DFF8B880DD
:10080000404503D14FF0000817E044E0DFF8AC802A
:10081000404502D14FF001080FE0DFF8A4804045C9
:1008200002D14FF0020808E0DFF89880404502D17D
:100830004FF0030801E04FF0040808FA06F848EA10
:100840000508CCF808804D68D9F80060ED024D46E7
:1008500001D5164300E096432E604D68DAF800603B
:10086000AD02554601D5164300E096432E604D6813
:10087000DBF80060AD035D4601D5164300E096430A
:100880002E604D68DEF80060ED03754601D5164315
:1008900000E096432E60641C0D682A46E5407FF414
:1008A00031AFBDE8F88F00000804014000001110CE
:1008B000001002400000014000080140000C01400F
:1008C00000100140001401400AB1016170470904A1
:1008D000FBE70000014880687047000030000020FE
:1008E000024881680278114481607047300000201E
:1008F000074810B5016841F010010160032000F0C5
:1009000075F80F2000F006F800F024F8002010BD64
:100910000020024070B50D4D04464FF47A712878DE
:10092000B1FBF0F00A490968B1FBF0F000F0DCFA25
:1009300048B9102C07D200222146501E00F036F88C
:1009400000206C6070BD012070BD000030000020F0
:100950003C0000200C4808B5816941F0010181612B
:10096000816901F001010091C16941F08051C161CB
:10097000C06900F0805000900448416821F0E061B7
:1009800041F00071416008BD0010024000000140CC
:10099000002809DB00F01F0201219140400980007E
:1009A00000F1E020C0F8001170470000F0B40E4BD9
:1009B0001B680C46C3F30223C3F10705042D00D9BD
:1009C0000425191D072901D2002300E0DB1E0126A2
:1009D00006FA05F1491E214099409E40761E1640B8
:1009E0003143F0BC01F0D7BF0CED00E0064900F048
:1009F000070208684FF6FF03184040EA0220034A46
:100A000010430860704700000CED00E00000FA059C
:100A10002DE9F0470F46050061D0434E306800F0E5
:100A20000700B84209D2306820F007003843306030
:100A3000306800F00700B84251D128683B4C81076C
:100A400012D5400703D5606840F4E0606060287804
:100A5000000703D5606840F4605060606068A96872
:100A600020F0F000084360602878C00728D068684C
:100A7000012810D02168022810D0890700292EDA19
:100A8000616821F0030101436160FFF723FF8046A5
:100A900041F288390DE021688903EFE78901EDE72C
:100AA000FFF718FFA0EB0801494502D90320BDE874
:100AB000F0876068696800F00C00B0EB810FEFD13F
:100AC000306800F00700B8420BD9306820F007000A
:100AD00038433060306800F00700B84201D0012090
:100AE000E5E72878400705D56068E96820F4E0600C
:100AF000084360602878000706D56068296920F4FB
:100B0000605040EAC100606000F038F86168084A4F
:100B1000C1F30311515CC8400649086006480068EB
:100B2000FFF7F8FE0020C2E700200240001002405C
:100B30002C3000083C000020340000200448054907
:100B400000684968044AC1F30221515CC8407047FB
:100B50003C000020001002403C30000804480549D9
:100B600000684968044AC1F3C221515CC84070471B
:100B70003C000020001002403C3000080E4A516842
:100B80000E4801F00C03042B11D0082B0FD10C4898
:100B9000C1F38343C903C05C0AD55168084AC1F355
:100BA0004041921E515C054A5043B0FBF1F0704742
:100BB00004494843704700000010024000127A00C8
:100BC0001C30000800093D002DE9F84F040070D0EA
:100BD0002078C04DC00749D06868C0F38100012863
:100BE00007D06868C0F38100022809D16868C00393
:100BF00006D52868800339D560680028E7D035E03D
:100C00006068B0F5803F0BD010B1B0F5A02F11D0C7
:100C1000286820F480302860286820F4802002E0D2
:100C2000286840F480302860606890B1FFF752FE79
:100C300006460AE0286840F480202860F0E700BFFC
:100C4000FFF748FE801B642873D828688003F7D517
:100C50000CE0FFF73FFE064605E000BFFFF73AFE57
:100C6000801B6428F0D828688003F7D420789A4E37
:100C700080074FF001094FF0000839D5686810F07F
:100C80000C0F07D06868C0F38100022809D168689A
:100C9000C00306D42868800714D52069012808D12C
:100CA00010E02069B0B1C6F80090FFF713FE0746C8
:100CB00005E00AE1FFF70EFEC01B0228C4D8286831
:100CC0008007F7D52868616920F0F80040EAC10084
:100CD00028600DE0C6F80080FFF7FCFD074604E041
:100CE000FFF7F8FDC01B022823D828688007F7D437
:100CF000207800072CD57948A169D9B1C0F80090B7
:100D0000FFF7E8FD074604E0FFF7E4FDC01B0228FB
:100D10000FD8686A8007F7D571484FF4FA51006818
:100D2000B0FBF1F0009000BF0098411E0091FAD294
:100D30000EE080E0C0F80080FFF7CCFD074604E03D
:100D4000FFF7C8FDC01B022875D8686A8007F7D472
:100D50002078400760D5E8690027C00008D4E8691A
:100D600040F08050E861E869012700F08050009071
:100D70005C480168C90513D40168834641F4807159
:100D80000160FFF7A7FD824606E000BFFFF7A2FD66
:100D9000A0EB0A0064284ED8DBF80000C005F5D5AA
:100DA000E06801280AD008B1052813D0286A20F08D
:100DB00001002862286A20F0040002E0286A40F05E
:100DC00001002862E06841F2883B98B1FFF782FD9C
:100DD00082460BE0286A40F004002862EEE700BF7C
:100DE000FFF778FDA0EB0A0159455AD8286A800719
:100DF000F6D50CE0FFF76EFD824605E0FFF76AFDD1
:100E0000A0EB0A0159454CD8286A8007F6D41FB1D7
:100E1000E86920F08050E861E06988B36968C1F34F
:100E20008101022944D00228C6F8608004D0FFF76F
:100E300051FD044638E034E0FFF74CFD074604E07E
:100E4000FFF748FDC01B02282BD828688001F7D483
:100E5000206AB0F5803F05D16868A16820F40030B1
:100E600008436860D4E908010843696821F47411F3
:100E700008436860C6F86090FFF72CFD044606E062
:100E800025E000BFFFF726FD001B022809D82868CF
:100E90008001F7D51BE000BFFFF71CFD001B0228F7
:100EA00002D90320BDE8F88F28688001F4D40EE051
:100EB0000128F7D06868226A00F48031914204D199
:100EC000616A00F47010884201D00120EAE7002036
:100ED000E8E7000000100240000042428004424265
:100EE0003C0000200070004010B5401EB0F1807F33
:100EF00001D3012010BD4FF0E02460610F21601785
:100F000001F049FD0020A06107202061002010BDF4
:100F10007047704770B590F83C20012A26D0012414
:100F200080F83C40022280F83D2003685A689D68A2
:100F300022F070060A6832435A600D4B02689A42EA
:100F400008D0B2F1804F05D00A4B9A4202D00A4B2A
:100F50009A4204D1496825F080031943916080F8D2
:100F60003D40002180F83C10084670BD022070BD55
:100F7000002C0140000400400008004010B50400AF
:100F800003D094F83D0010B107E0012010BD00200F
:100F900084F83C00204600F01FF8022084F83D0051
:100FA000211D206801F010FA012084F8460084F821
:100FB0003E0084F83F0084F8400084F8410084F843
:100FC000420084F8430084F8440084F8450084F823
:100FD0003D00002010BD000008B501681948B1F1BE
:100FE000804F0BD0184A914217D1C16941F00201DC
:100FF000C161C06900F00200009008BDC16941F004
:101000000101C161C069002200F001000090114699
:101010001C20FFF7CBFC1C2010E00C4A9142ECD1C5
:10102000C16941F00401C161C069002200F00400FF
:10103000009011461E20FFF7B9FC1E20BDE80840B5
:10104000FFF7A6BC0010024000040040000800406A
:1010500090F83D10012901D001207047022180F84D
:101060003D1000680B49884208D0B0F1804F05D090
:101070000949884202D00949884204D1816801F0B7
:101080000701062903D0016841F001010160002039
:1010900070470000002C01400004004000080040A0
:1010A00090F83D10012901D001207047022180F8FD
:1010B0003D100168CA6842F00102CA6000680B492D
:1010C000884208D0B0F1804F05D00949884202D04B
:1010D0000849884204D1816801F00701062903D03C
:1010E000016841F00101016000207047002C0140BF
:1010F000000400400008004070B5044690F83C0031
:101100000025012817D0012684F83C60022084F8CD
:101110003D002068826822F0770222F47F428260DC
:101120000868502838D00DDC20284FD005DC90B35B
:10113000102811D14AE0022070BD302846D0402846
:101140000AD13BE060282FD070280DD0B0F5805F29
:1011500003D0B0F5005F12D0012584F83D60002077
:1011600084F83C00284670BDCB68D1E90121206895
:1011700001F073F92068816841F0770109E0CB68DC
:10118000D1E90121206801F068F92068816841F403
:1011900080418160E1E719E0CA684968206801F090
:1011A00011FA5021206806E0CA684968206801F0F9
:1011B0001AFA6021206801F05AF9CEE7CA68496836
:1011C000206801F0FFF940212068F4E72268014619
:1011D0001046F0E770472DE9F04104460068C66804
:1011E00005694FF00007A90713D5B10711D5F91EFE
:1011F000016101202077206880698007204602D0A5
:10120000FFF7E8FF04E000F0C7F8204600F059F9C6
:101210002777680716D5700714D521686FF004008A
:101220000861022020772068806910F4407F204602
:1012300002D0FFF7CFFF04E000F0AEF8204600F048
:1012400040F92777280715D5300713D521686FF0A7
:1012500008000861042020772068C06980072046C4
:1012600002D0FFF7B7FF04E000F096F8204600F048
:1012700028F92777E80616D5F00614D521686FF00F
:1012800010000861082020772068C06910F4407FB2
:10129000204602D0FFF79EFF04E000F07DF82046D4
:1012A00000F00FF92777E80708D0F00706D021688B
:1012B0006FF001000861204600F052F9280608D5B9
:1012C000300606D521686FF0800008612046FFF7E0
:1012D0001FFE680608D5700606D521686FF040002D
:1012E0000861204600F0A0F9A8060AD5B00608D586
:1012F00021686FF0200008612046BDE8F041FFF74B
:1013000008BEBDE8F081000030B585B00021009135
:1013100001910291039100681A4A1B4902241B4D56
:10132000904219D1886940F004008861886900F012
:1013300004000490886940F0080088618869694663
:1013400000F008000490C020CDE900041048039488
:10135000FFF7CAF903200CE00E4A904210D18869C9
:1013600040F008008861886900F0080004904FF49C
:101370007070CDE90004694628460394FFF7B4F97C
:1013800005B030BD0004004000100240000C0140D8
:101390000008014000080040704770B5044690F80E
:1013A0003C0000260D4601280FD0012084F83C00A7
:1013B0006AB1042A1DD0082A2FD00C2A3FD001265A
:1013C000002084F83C00304670BD022070BD2068CB
:1013D00001F056F82068816941F0080181612068B8
:1013E000816921F004018161206881692A691143C2
:1013F00011E0206801F06CF82068816941F4006117
:1014000081612068816921F480618161206881693E
:101410002A6941EA02218161D2E7206801F084F85B
:101420002068C16941F00801C1612068C16921F0EB
:101430000401C1612068C1692A69114311E0206873
:1014400001F09EF82068C16941F40061C161206823
:10145000C16921F48061C1612068C1692A6941EADA
:101460000221C161ACE710B5040003D094F83D003F
:1014700010B107E0012010BD002084F83C00204698
:1014800000F01EF8022084F83D00211D206800F0C5
:101490009BFF012084F8460084F83E0084F83F005A
:1014A00084F8400084F8410084F8420084F8430046
:1014B00084F8440084F8450084F83D00002010BD05
:1014C0007047704710B50446022249B104290ED076
:1014D000082913D094F84100012816D0012010BD2E
:1014E00094F83E000128F9D184F83E200FE094F8EA
:1014F0003F000128F2D184F83F2008E094F8400032
:101500000128EBD184F8402001E084F84120012239
:10151000206800F095FF0F492068884203D1426C93
:1015200042F4004242642068884208D0B0F1804F03
:1015300005D00949884202D00849884204D181680F
:1015400001F00701062903D0016841F001010160A3
:10155000002010BD002C01400004004000080040A5
:1015600070B50068B0F1804F54D100F037FC2A4DBF
:101570002A4C287D022802D1A078401CA070687CEB
:10158000002602280BD16069401D606160690F2848
:1015900000DD66616069C1B2002000F0BBFEA87C7E
:1015A00002280BD1A069401DA061A0690F2800DDB1
:1015B000A661A069C1B2042000F0ACFEE87C02285C
:1015C0000BD1E069401DE061E0690F2800DDE661B4
:1015D000E069C1B2082000F09DFE287C02280BD1F2
:1015E00020690F30206120693C2800DD26612069D8
:1015F000C1B20C2000F08EFE0948406C002809D0D2
:10160000074800F00BF9BDE870400B22054904487B
:1016100000F00BB870BD00004C030020000000205B
:101620008801002028030020704738B5044690F850
:101630004200202801D0022038BD51B14AB101201A
:10164000206300206063204601F050F9216B0129DE
:1016500001D0012038BD21680A68496800912168DD
:101660000C3151E8002F42F0100241E80023002B1A
:10167000F5D138BD2DE9F05F0068624988427CD120
:1016800061480178AA2979D140785528FBD15E4874
:10169000FEF7FEFD5D4A5E4C106860605168A16017
:1016A0009268E260FEF764FE2070E068FEF78EFE4E
:1016B000584E6070217806F1140B06F1500A06F1BD
:1016C000280906F13C0805296FD2DFE801F0630321
:1016D000152744005FF0010505EB850006EB800748
:1016E0000121384600F084FD3846A16800F0A4FDD1
:1016F0006D1C042DF0DD58E05FF0010505EB850061
:1017000006EB80000746022100F072FD3846A16812
:1017100000F092FD6D1C042DF0DD46E002215846DC
:1017200000F066FD0221504600F062FD01214846AE
:1017300000F05EFD0121404600F05AFD5FF001051A
:1017400005EB850006EB8000616800F075FD6D1CFF
:10175000042DF5DD29E00121584600F049FD012165
:10176000504600F045FD0221484600F041FD0221AF
:10177000404600F03DFD012501E041E039E005EB88
:10178000850006EB8000616800F056FD6D1C042D9D
:10179000F2DD0AE05FF0010505EB850006EB800055
:1017A00000F0A6FD6D1C042DF6DD6078052802D042
:1017B00006281ED10DE00221584600F019FD012136
:1017C000504600F015FD0121484600F011FD0221B0
:1017D0000CE00121584600F00BFD0221504600F0BC
:1017E00007FD0221484600F003FD0121404600F0BC
:1017F000FFFCBDE8F05F0B2203490748FFF715BF68
:10180000BDE8F09F00380140280300204C03002071
:10181000000000204C0000208801002010B5044684
:101820000068406994F84110C0F3C010212911D11B
:1018300080B12068143050E8001F21F0800140E89A
:101840000012002AF5D1A06B08B1FEF7CDFD2046AD
:1018500000F081FF2068406994F84210C0F38010C6
:10186000222911D180B12068143050E8001F21F0E6
:10187000400140E80012002AF5D1E06B08B1FEF704
:10188000B3FD204600F040FF002010BD704700006F
:10189000F8B5016804460868CA684B6910F00F0F74
:1018A0004FF0000559D003F0010602F4907737435A
:1018B00065D0C10705D0D10503D5616C41F00101A8
:1018C0006164410705D5D90703D0616C41F002017D
:1018D0006164810705D5D90703D0616C41F004012B
:1018E0006164010707D502F02001314303D0616C28
:1018F00041F008016164616C00293AD0800604D58A
:10190000900602D5204600F034FF20684069616CE3
:10191000C0F38010090700D460B3204600F0F4FE45
:1019200020684069400621D52068143050E8001F27
:1019300021F0400140E80012002AF5D1E06BA8B187
:101940006D494163E06BFEF773FD002811D0E06B39
:10195000416B01B0BDE8F040084783060FD5930600
:101960000DD52046BDE8F84000F003BF2046FFF744
:101970008DFFF8BD2046FFF789FF6564F8BD266B33
:101980002023012E7CD1C6067AD5D60678D50868E4
:101990004868009048694FF00206400640D5E16B68
:1019A000086840680004000CE8D0A28D8242E5D9A6
:1019B000E085886920282DD020680C3050E8001F71
:1019C00021F4807140E80012002AF5D1206814301B
:1019D00050E8001F21F0010140E80012002AF5D173
:1019E0002068143050E8001F21F0400140E8001248
:1019F000002AF5D184F84230256320680C3050E885
:101A0000001F21F0100140E80012002AF5D1E06B20
:101A1000FEF7EAFC6663A08DE18D401A81B22AE0F0
:101A2000A08DE18D401A81B2E08D0028A6D000295A
:101A3000A4D022680C3252E8000F20F4907042E8E3
:101A40000007002FF5D12068143050E8002F22F055
:101A5000010240E80027002FF5D184F842302563C9
:101A600020680C3050E8002F22F0100240E80023DC
:101A7000002BF5D166632046FFF7FCFDF8BDFFE7BC
:101A800005062BD5150629D594F841002128F5D156
:101A9000A068B0F5805F01D12069B0B1206A411C17
:101AA0002162216800784860E08C401E0004000C30
:101AB000E084E3D12068C16821F08001C160206822
:101AC000C16841F04001C160D8E7206A0088C0F3D6
:101AD00008004860206A801C2062E5E74006CDD5FA
:101AE0005006CBD5CA68204622F04002CA6084F86E
:101AF000413000F062F9C1E70B26000870B5040020
:101B000004D094F84100002510B106E0012070BD1A
:101B100084F84050204600F023F8242084F8410047
:101B20002068C16821F40051C160204600F082FEA7
:101B30002068016921F4904101612068416921F028
:101B40002A0141612068C16841F40051C1606564A7
:101B5000202084F8410084F842006563002070BDB5
:101B60002DE9F04385B00025009501950295039578
:101B70000446DFF864C10368584802210322584F25
:101B800080264FF0100963454CD1836943F48043AC
:101B90008361836903F480430493836943F00403FE
:101BA00083618069039200F0040004900802CDE98B
:101BB000000169463846FEF797FDF000CDE90005C3
:101BC000694638460295FEF78FFD474F4548C7E9FD
:101BD0000005C7E902563D617D61BD613846FD6182
:101BE000FEF71CFD08B1FEF7C1FBE7637C623E4FC8
:101BF0003C4844371438C7E902563D617D61BD61F8
:101C0000FD61C7E900093846FEF708FD08B1FEF797
:101C1000ADFBA7630022114625207C62FEF7C6FEBD
:101C2000252053E0DFF8C4C0634551D1C36943F4B4
:101C30000033C361C36903F400330493836943F041
:101C4000040383618069039200F00400049004207F
:101C5000CDE9000169463846FEF746FD0820CDE98A
:101C60000005694638460295FEF73EFD1E4F1D48A9
:101C700088371430C7E90005C7E902563D614FF4C3
:101C800080587D61C7E906583846FEF7C7FC08B1A1
:101C9000FEF76CFBE7637C62134F1248CC372830A9
:101CA000C7E902563D617D61C7E90009C7E90658E9
:101CB0003846FEF7B3FC08B1FEF758FBA7630022D5
:101CC000114626207C62FEF771FE2620FEF760FE9C
:101CD00005B0BDE8F083000000380140001002406C
:101CE0000008014058000240180200200044004053
:101CF00090F84230202B01D00220704721B11AB158
:101D00000023036300F0F2BD012070472DE9F0418C
:101D10002549884246D1254C2078AA283BD16078B5
:101D2000552838D1A57A0A212046FEF7E4FAA842C0
:101D300031D1E078A17840EA0120617900B22279BE
:101D400041EA02210EB2E179A27941EA02210DB203
:101D5000617A227A41EA02210FB201F005F8DFF838
:101D60005080414600F01EFF124C2062304600F0C9
:101D7000FBFF414600F016FF6062284600F0F4FFCA
:101D8000414600F00FFFA062384600F0EDFF4146EB
:101D900000F008FFE062BDE8F0410B220349024871
:101DA000FFF7A6BFBDE8F081D00100204000002071
:101DB0000000C8420000002070477047FEE72AB1CB
:101DC000012A08D141B1012905D103E011B101294E
:101DD00001D10221017070470321FBE770B5184E55
:101DE0000023A6F10B0404F11805307AD84000F066
:101DF0000102207AD84000F00101E8181030FFF706
:101E0000DEFF5B1C082BF0DB0023707AD84000F06B
:101E10000102607AD84000F00101E8181830FFF79D
:101E2000CEFF5B1C082BF0DB2068C4F80B00606859
:101E3000C4F80F002089A4F81300A07A607570BD63
:101E40003F030020154808B5416941F00101416197
:101E50004069002200F00100009011460E20FEF7BC
:101E6000A5FD0E20FEF794FD002211460F20FEF77F
:101E70009DFD0F20FEF78CFD002211461020FEF77D
:101E800095FD1020FEF784FD002211461120FEF77B
:101E90008DFDBDE808401120FEF77ABD001002401C
:101EA0002DE9F04385B000252C4800950195029559
:101EB0000395816941F010018161816901F0100190
:101EC0000491816941F020018161816901F0200163
:101ED0000491816941F004018161816901F004018B
:101EE0000491816941F00801816180691C4F00F013
:101EF00008004FF460440490002221463846FEF763
:101F0000E3FCDFF86080002220214046FEF7DCFC85
:101F1000DFF8549044F61046002231464846FEF75A
:101F2000D3FC00940124CDE9014569463846039469
:101F3000FEF7DAFB20208DE8310069464046039425
:101F4000FEF7D2FB0096CDE9014569464846039469
:101F5000FEF7CAFB05B0BDE8F083000000100240A8
:101F60000010014000080140000C014010B586B08F
:101F700000241648009401940294039404944FF0B2
:101F80008041059401604721C0E9011440F2E73126
:101F9000C0E903148461FEF7F1FF08B1FEF7E6F92A
:101FA0004FF48050009069460848FFF7A5F808B143
:101FB000FEF7DCF9049404A904480594FEF7AAFF8F
:101FC000002801D0FEF7D2F906B010BDB000002005
:101FD00010B58EB000240794089409940A940B94C9
:101FE0001C2168460C94FEF7EFF82B482949016044
:101FF00040F2CF21C0E9011440F2CF71C0E90314CF
:1020000080218161FEF7BAFF08B1FEF7AFF94FF406
:102010008050079007A92048FFF76EF808B1FEF737
:10202000A5F91D48FFF71FFA08B1FEF79FF90B94B9
:102030000BA919480C94FEF76DFF08B1FEF796F94D
:102040006020CDE9000402940022694612480494FD
:10205000FFF7A3F908B1FEF789F9042269460E4893
:10206000FFF79BF908B1FEF781F9082269460A4893
:10207000FFF793F908B1FEF779F90C226946064893
:10208000FFF78BF908B1FEF771F90348FFF73CF948
:102090000EB010BD00040040F800002010B58EB056
:1020A00000240794089409940A940B941C21684610
:1020B0000C94FEF789F82A48284901604721C0E9B5
:1020C00001146321C0E9031480218161FEF756FFEA
:1020D00008B1FEF74BF94FF48050079007A920484C
:1020E000FFF70AF808B1FEF741F91D48FFF7BBF901
:1020F00008B1FEF73BF90B940BA919480C94FEF7B5
:1021000009FF08B1FEF732F96020CDE9000402941E
:102110000022694612480494FFF73FF908B1FEF720
:1021200025F9042269460E48FFF737F908B1FEF792
:102130001DF9082269460A48FFF72FF908B1FEF792
:1021400015F90C2269460648FFF727F908B1FEF792
:102150000DF90348FFF7D8F80EB010BD0008004095
:10216000400100200C4810B50A4901604FF4E131EC
:102170004160002181600C22C160C0E904128161CC
:10218000C161FFF7BBFC002803D0BDE81040FEF79B
:10219000EDB810BD00380140880100200C4810B592
:1021A0000A4901604FF4E1314160002181600C2255
:1021B000C160C0E904128161C161FFF79FFC002882
:1021C00003D0BDE81040FEF7D1B810BD0044004078
:1021D000D0010020FEE7F0B50DF1140C9CE8F000F2
:1021E00041600281C3600482457086708774F0BDCF
:1021F00010B50446417001290FD0022911D00329DE
:1022000018D1218900226068FEF75EFB218AE06810
:102210000022BDE81040FEF757BB2189012260680B
:10222000F2E7218900226068FEF74EFB218A012235
:10223000E068EEE710BD000070B5002504460A46D0
:1022400011F1FF4F01D381F000422749104600F001
:10225000A3FD00F069FDC0B2642800D9642020709D
:102260006078012804D0022806D0032810D11DE090
:102270002189012260681CE0012521890022606813
:10228000FEF722FB218A0122D4F80C00FEF71CFB8A
:10229000A17C164899B1042918D008291DD02178AD
:1022A0000DB1C1F164010068016470BD2189002293
:1022B0006068FEF709FB218A0022E068E6E72178E2
:1022C0000DB1C1F164010068416370BD21780DB1A9
:1022D000C1F164010068816370BD21780DB1C1F165
:1022E00064010068C16370BD0000C8424001002065
:1022F00010B50446018940680022FEF7E5FA218AFC
:10230000E068BDE810400022FEF7DEBAFEE7704745
:1023100070470000B42900D9B421C8225143B42227
:10232000B1FBF2F1084A323189B2126828B10428AF
:1023300005D0082805D01164704751637047916338
:102340007047D16370470000F8000020FEF7C8BA5C
:1023500030B58FB028216846FDF736FF14210AA852
:10236000FDF732FF01210804CDE90010002402949A
:1023700002250491CDE907504FF4E010099068461A
:10238000FEF722FC08B172B6FEE70F20CDE90A0580
:102390004FF48060CDE90C4002210AA80E94FEF7AC
:1023A00037FB002801D072B6FEE70FB030BD704792
:1023B0000148FEF710BF0000B00000200148FEF702
:1023C0000ABF000040010020F0B50268194B1A4C0A
:1023D0001A4D4FF08047984205D0B84203D0A04232
:1023E00001D0A84203D122F070064A6832439842D5
:1023F00005D0B84203D0A04201D0A84203D122F4B4
:102400004074CA6822434C6922F080022243026071
:102410008A68C2620A688262984201D109690163CE
:10242000012141610169C90703D0016921F001015E
:102430000161F0BD002C0140000400400008004094
:1024400010B501F01F030121046A99408C43046216
:10245000016A9A401143016210BD10B5846842EAD6
:10246000032224F47F440A432243826010BD826821
:1024700022F070020A4342F00701816070470000B9
:1024800030B5036A026A22F001020262426884697E
:1024900024F073050C682C4323F002058B682B4352
:1024A0000A4DA8420BD123F00805CB6822F44072F4
:1024B0002B434D6923F0040315438A692A43426084
:1024C000846149684163036230BD0000002C014013
:1024D00030B5026A036A23F010030362436884691B
:1024E0000D6824F4E64444EA05248D6822F02002B5
:1024F00042EA05120B4DA8420ED1CD6822F08002AF
:1025000042EA05124D6923F4406343EA85038D696D
:1025100022F0400243EA8503436084614968816395
:10252000026230BD002C014030B5036A026A22F419
:10253000807202624268C46923F4007324F0730558
:102540000C682C438D6843EA05230C4DA8420ED13C
:10255000CD6823F4006343EA05234D6922F4405219
:1025600042EA05128D6923F4806342EA0512426053
:10257000C4614968C163036230BD0000002C0140A2
:1025800030B5046A026A22F4805202624268C3696A
:102590000D6823F4E64343EA05238D6824F40054D0
:1025A00044EA0534064DA84204D14D6922F4804224
:1025B00042EA85124260C36149680164046230BD29
:1025C000002C014010B5036A046A24F0010404627F
:1025D000846924F0F00444EA021423F00A020A4356
:1025E0008461026210BD10B5036A046A24F010040D
:1025F0000462846923F0A00324F4704444EA0232A4
:1026000043EA01118261016210BD10B5406A0021E8
:10261000C185C184FFF73AF910BD70B5446A2068DE
:10262000406994F84110C0F3C0100025212904D15D
:1026300018B1E584204600F08EF82068406994F8CF
:102640004210C0F38010222904D118B1E58520463C
:1026500000F05AF8606C40F0100060642046FFF70C
:1026600015F970BD10B50146406A096809684FF058
:10267000000289062ED4C28501680C3151E8003F62
:1026800023F4807341E80034002CF5D10168143143
:1026900051E8003F23F0010341E80034002CF5D15C
:1026A0000168143151E8003F23F0400341E8003451
:1026B000002CF5D1202180F84210016B012909D1AD
:1026C00001680C3151E8003F23F0100341E8003469
:1026D000002CF5D14263016B012902D0FFF716FBF4
:1026E00010BD818DFEF7C6FF10BD10B5406A0121F7
:1026F0004163016B012902D0FFF75EFB10BD818DA4
:102700004908FEF7B7FF10BD01680C3151E8002FF2
:1027100022F4907241E80023002BF5D101681431B6
:1027200051E8002F22F0010241E80023002BF5D1EF
:10273000016B012909D101680C3151E8002F22F009
:10274000100241E80023002BF5D1202180F842102F
:1027500000210163704701680C3151E8002F22F01D
:10276000C00241E80023002BF5D1202180F8411060
:10277000704708B590F84210222901D0022008BD08
:1027800082684FF480539A4201D1016921B1816A74
:102790009A421BD04AB10AE00268816A5268C2F3C9
:1027A00008020A80816A891C08E0026972B1026825
:1027B000526802F07F020A70816A491C8162C18DF1
:1027C000491E0904090CC18503D01BE00268526848
:1027D000F1E70168CA6822F02002CA600168CA688D
:1027E00022F48072CA6001684A6922F001024A61DB
:1027F000202180F8421000214163026B012A03D09E
:10280000FFF784FA002008BD016301680C3151E82C
:10281000002F22F0100241E80023002BF5D10168BF
:102820000A68D20602D50A6849680091818DFEF7D0
:1028300021FFE7E770B5044600680169E26821F40A
:102840004051114301612169A0680843616908434F
:102850002168CA6841F20C639A430243CA60206847
:102860004169A26921F44071114341611E49206808
:10287000884202D1FEF772F901E0FEF75FF900EB42
:10288000C00101EB0012606864218000B2FBF0F32C
:10289000B3FBF1F36FF018067343B2FBF0F5B2FB34
:1028A000F0F605EB8305322303EB0515B5FBF1F5D7
:1028B000B6FBF1F605F0F00505EB0615B2FBF0F6F8
:1028C000B2FBF0F0B0FBF1F06FF01802504306EBF2
:1028D000800003EB0010B0FBF1F0216800F00F0066
:1028E0002844886070BD00000038014038B581621E
:1028F00004468285002013466064222284F8422028
:10290000E56B1B4AAA62E56B1A4AEA62E56B1A4A52
:102910002A63E26B50630A462168E06B091DFDF7EC
:10292000ABFE2068016840680090206948B12068CB
:102930000C3050E8001F41F4807140E80012002A7A
:10294000F5D12068143050E8001F41F0010140E843
:102950000012002AF5D12068143050E8001F41F021
:10296000400140E80012002AF5D1002038BD0000E7
:1029700065260008EB2600081B2600080148FEF724
:1029800087BF0000880100200148FEF781BF0000DA
:10299000D0010020FEE70907090E002804DB00F142
:1029A000E02080F80014704700F00F0000F1E020F4
:1029B00080F8141D704700001FB5FDF799FFFFF761
:1029C000C7FCFFF76DFAFFF73DFAFFF7CBFBFFF708
:1029D00065FBFFF7CBFAFFF7FBFAFFF7DFFB3648A3
:1029E000FEF75EFB0B2235493548FEF71EFE0B2233
:1029F00034493548FFF77CF93448FEF729FB344861
:102A0000FEF726FB00213148FEF75CFD04212F482C
:102A1000FEF758FD08212D48FEF754FD0C212B48E8
:102A2000FEF750FD00212A48FEF74CFD04212848FE
:102A3000FEF748FD08212648FEF744FD0C212448F6
:102A4000FEF740FD0225280300900024CDE9015443
:102A5000204E47001B4833463A461946203003941F
:102A6000FFF7B9FB0420CDE902401021CDE90015A4
:102A7000DFF8648013484346202218493430FFF7BA
:102A8000AAFB0820CDE9024002030E48CDE90075FB
:102A9000434631464830FFF79EFB0C206902CDE9E2
:102AA0000240CDE90015074843464A0019465C300C
:102AB000FFF791FBFEE70000B00000202803002094
:102AC0008801002040000020D0010020F8000020F4
:102AD0004001002000100140000C014000080140AE
:102AE00090EA010F48BF81F0004100F12882421AAC
:102AF0003CBF801A89184FEAD0524FF07F4C1CEA35
:102B0000410FA2EBD15318BF9CEA026F00F03B804B
:102B10004FF0004C4CEA00204CEA012121FA03FC62
:102B200010EB0C0C1ED202F1FF325FEA1C2040EBCE
:102B3000C25038BF70471CF07F0F4FEA400C18BFDF
:102B4000BCF17F4F38BF7047C3F12003994008BFE5
:102B500020F00100BCF17F4F38BF7047A0F1C040AA
:102B600000F0E1B94FEA3C00000A40EBC25028BF38
:102B70001CF0FF0F4FEA400CE6D018BFBCF17F4FAE
:102B800038BF7047EAE79CEA026F05D010EA5C0F95
:102B900008BF00F00040704710B500F07EF900BF9C
:102BA00064FBBE3E4FF47F0C1CEAD0121EBF1CEA31
:102BB000D11392EA0C0F93EA0C0F00F0858090EA93
:102BC000010F48BF42F4807240F4000C41F4000051
:102BD0002CF07F4120F07F4000B58142A2EB030240
:102BE0000FF2081CACEB504EC0F100009EF800E064
:102BF0004FEA4E0E00FB0EFC38BF49004FEA2C1C7A
:102C000002F5FA020CFB0EF34FEACE1E4FEA112C2E
:102C10004FEAC1210EEB635E42EB22420EFB0CFC3D
:102C20004FEA1C5300FB03114FEA112C4FEA01310C
:102C30000EFB0CFC4FEADC4C00FB0C11C14228BF20
:102C400009184CEB03335DF804EB10EB410143EB47
:102C5000C250B2F57C0F38BF704729D512F0F00F83
:102C60001CBF00F1C04000F000407047008182832B
:102C70008485868788898B8C8D8E8F91929395968B
:102C800097999A9C9D9FA0A2A3A5A7A8AAACAEB015
:102C9000B2B3B5B7B9BCBEC0C2C5C7C9CCCED1D41A
:102CA000D7D9DCDFE2E6E9ECF0F3F7FAFE0000004A
:102CB0004FEA400C0CF1807CBCF17E4F28BF70477E
:102CC000B0F1C04000F02FB990EA010F0CEAD11327
:102CD00048BF42F48072624538BF634507D213F49F
:102CE0007F0F16D080EA010000F00040704710B559
:102CF00000F0D3F8097EFC3E00F005B880EA010040
:102D000000F00040704780EA010000F0004000F051
:102D10000AB912F47F0F04BF0248704780EA01002D
:102D200000F001B90000C07FC10DD1F19E0206DBA9
:102D30004FEA002343F0004323FA02F070470042B9
:102D400007D54FEA4001B1F1FE4F02D24FF000002B
:102D5000704710B500F0A1F8499224800020704718
:102D60006FEA20007047000010F0004148BF404269
:102D7000B0FA80F310FA03F2C3F19D030BD051EACD
:102D8000C35101EB1220530638BF704700F1010018
:102D900008BF20F0010070474FF47F0C1CEAD012EE
:102DA0001EBF1CEAD11392EA0C0F93EA0C0F00F03D
:102DB000478090EA010F48BF42F480724FF0004C08
:102DC0004CEA00204CEA012102EB0302A0FB0113B4
:102DD000A2F50002002918BF43F001035B0028BFE1
:102DE0004FEA330342EB22425FEA132C4CEBC25012
:102DF0002EBFBCEB436FB2F57C0F70474FEA036CFC
:102E0000BCF1004F08BF20F00100B2F57C0F38BFC5
:102E100070470BD582F0FF0212F5803FC8BF7047A4
:102E200000F1C040D8BF00F00040704700F5000C32
:102E30005FEA4C0C48BF7047B0F1C04000F073B877
:102E400090EA010F0CEAD11348BF42F48072624548
:102E500038BF634504D280EA010000F000407047AB
:102E600010B500F01AF800BF8900013E00F007B865
:102E700000F009B85FEA410C5FEA1C6C08D080EAF8
:102E8000010000F050B85FEA400C5FEA1C6CF6D11C
:102E90004FF00040A0F5800070470EF1020E2EF0BA
:102EA000030E5EF8044B244204D44FEA4102B2F10F
:102EB0007F4F11D84FEA4003B3F17F4F0CD80ED1AA
:102EC0004FEAD07CB2F17F4F0CEB4C0C0CF1020CB2
:102ED00008BF4CEBD17C04E04FF0080C01E04FEA56
:102EE000D17C0CEB4C0324FA03F404F00704B4F196
:102EF000040C06D20EEB840CBDE810404CF0010C23
:102F00006047DFE80CF0070802024FF00040A0F530
:102F1000800010BD0846420018BFD2F1807288BF01
:102F200000F0004010BDFF2141EAD050C0057047BD
:102F300090EA010F48BF81F000413FF5D8AD421A39
:102F400004D882F00042A0EB020011444FEAD052B4
:102F50004FF07F4C1CEA410FA2EBD15318BF9CEA03
:102F6000026F4AD04FF0004C4CEA00204CEA01219D
:102F700021FA03FCB0EB0C0C0FD412F0FE0F36D08C
:102F80005FEA4C001DD5001240EBC25038BF7047BD
:102F90001CF03F0F18BF70470BE0A2F101025FEA7F
:102FA0001C2040EBC25038BF70471CF07F0F18BF89
:102FB0007047C3F12003994014BF401E20F0010068
:102FC000704780084FEA122308BF7047B0FA80FCB0
:102FD000A2EB0C02CCF1280C60FA0CF093EA122F51
:102FE00004BF00EBC25070474FEAC3707047130A2A
:102FF0005FEADC1008BF7047F6E79CEA026F04D076
:1030000010EA5C0F08BF0020704710B5FFF745FFBE
:1030100040DFF63E81F000407047010202030405E4
:10302000060708090A0B0C0D0E0F10100000000017
:103030000000000001020304060708090000000068
:10304000010203046430000800000020400000007A
:1030500028010008A430000840000020900900006A
:103060004401000800000000000000000000000013
:103070000000000000000000000000000000000050
:103080000000000000000000000000000000000040
:10309000000000000100000010000000000000001F
:0430A00000127A00A0
:04000005080000ED02
:00000001FF
